:020000040800F2
:100000008806002001010008E33500084D2500089E
:10001000E1350008A7050008D53B000800000000F6
:10002000000000000000000000000000F937000898
:10003000A905000800000000E5350008FB370008AE
:100040001B0100081B0100081B0100081B01000820
:100050001B0100081B0100081B0100081B01000810
:100060001B0100081B0100081B0100081B01000800
:100070001B0100081B0100081B0100081B010008F0
:100080001B0100081B0100081B0100081B010008E0
:100090001B0100081B0100081B010008AB0500083C
:1000A0005138000875380008693800085D380008C4
:1000B000813800081B0100081B0100085D250008AD
:1000C0005125000875250008692500081B01000856
:1000D0001B010008C93B00081B0100081B010008A8
:1000E0001B0100081B0100081B010008DFF80CD0F1
:1000F00000F0D6F900480047C53E000888060020F9
:100100000648804706480047FEE7FEE7FEE7FEE7B1
:10011000FEE7FEE7FEE7FEE7FEE7FEE74D380008F4
:10012000ED000008202A04DB203A21FA02F0002129
:10013000704721FA02F3D040C2F1200291400843F7
:100140001946704740EA01039B0703D009E008C93C
:10015000121F08C0042AFAD203E011F8013B00F88C
:10016000013B521EF9D27047D2B201E000F8012BD8
:10017000491EFBD270470022F6E710B513460A4627
:1001800004461946FFF7F0FF204610BD70B50F4D2D
:1001900000B92868002412E00A4602E09E4203D01B
:1001A000521C1378002BF9D1DAB2224305D02BB1BF
:1001B00024B1002100F8011B04E00446401C06782D
:1001C000002EE9D12860204670BD000044000020C8
:1001D00070B5064603F034FD046805460A22002186
:1001E000304600F0C7F82C6070BD2DE9FE4F81EA63
:1001F000030404F0004421F0004100944FF0000B90
:1002000023F0004350EA01045ED052EA03045BD0BD
:10021000C3F30A54C1F30A552C44A4F2F3340194F5
:10022000A0FB0254C1F3130141F48011C3F3130383
:1002300043F4801301FB024400FB034E840A970A37
:1002400044EA815447EA8357A4FB076802958D0A64
:1002500005FB07854FEA932C04FB0C542705029DF0
:100260004FEA065847EA1637B5EB08056EEB070C60
:10027000870E920E47EA811742EA8312A7FB02011A
:10028000B6EB0B0164EB00042B0D43EA0C335E1854
:1002900044EB1C50DA465146E7FB0201C5F3130458
:1002A0004FEA0B3343EA14534FEA0432019C43EA0A
:1002B0000603A4F10C040294009CCDE900B400F004
:1002C000A0F803B0BDE8F08F00200146F9E770B553
:1002D00021F0004303430CD0C1F30A550024D5EBB1
:1002E000040564EB0403D617AD1AB34102DB00200A
:1002F000014670BD201841EB025170BD0EB540F2B1
:10030000334102910021CDE900110A460B4600F06D
:1003100078F803B000BDC1F30A5210B5C1F3130160
:1003200040F2FF3341F480119A4201DA002010BDFF
:1003300040F233439A42A2F2334203DC5242FFF7C7
:10034000F1FE10BD904010BD30B50B4601460020B7
:100350002022012409E021FA02F59D4205D303FA87
:1003600002F5491B04FA02F52844151EA2F1010208
:10037000F1DC30BD2DE9F04791460F46804604463A
:10038000002614F8015B2DB100F0ACF80068405D68
:10039000C007F6D12B2D02D02D2D18D0641E4A4651
:1003A0003946204600F0A2F827B13968A14201D1B0
:1003B000C7F8008071054FF002040BD540420028B9
:1003C00003DD03F03DFC0460A007BDE8F08746F4C0
:1003D0008066E4E70028F8DA03F032FC04606FF08E
:1003E0000040F2E710B5141E73F1000408DA401C57
:1003F00041F1000192185B411A4301D120F0010044
:1004000010BD2DE9F04D92469B4611B1B1FA81F233
:1004100002E0B0FA80F22032904600F053F8044631
:100420000F4640EA0A0041EA0B0153465A46084388
:1004300013D0114653EA010019D0C8F140025046CA
:10044000FFF770FE05460E4650465946424600F0FC
:1004500039F8084305D0012004E020463946BDE8BC
:10046000F08D0020054346EAE0762C4337430A9896
:100470006305E40AA0EB08000022FD0A44EA4754A1
:100480000A3002D500200146E9E70105101969414B
:10049000DDE9084500196941BDE8F04DA2E700001B
:1004A000064C074D06E0E06840F0010394E80700C1
:1004B00098471034AC42F6D3FFF71CFE44410008C5
:1004C00064410008202A04DB203A00FA02F10020EF
:1004D00070479140C2F1200320FA03F31943904082
:1004E0007047000000487047404100082DE9F05F68
:1004F00082460078002715468B460AF10104B9466A
:10050000302801D09DB113E014F8010B01277828A1
:1005100003D0582801D045B10AE00DB1102D07D104
:100520000027102514F8010B02E0082500E00A2539
:100530000026B0460EE005FB080005FB06F101278A
:1005400001EB10461FFA80F8B6F5803F00D3B9469C
:1005500014F8010B294600F018F80028EBDABBF17B
:10056000000F05D00FB1641E00E05446CBF80040E8
:10057000B9F1000F06D003F063FB02210160C81E31
:10058000BDE8F09F48EA0640FAE73A2800D2303842
:1005900020F02002412A01D3A2F13700884201D382
:1005A0004FF0FF307047FEE77047202000F060B941
:1005B00010B590F821100024022903D00421816392
:1005C00001243DE001680A6822F00E020A60016819
:1005D0000A6822F001020A601A4A0168914201D1B8
:1005E000012121E0174A1432914201D110211BE070
:1005F000144A2832914201D1891515E0114A3C3242
:10060000914201D189140FE00E4A5032914202D139
:100610004FF4803108E00B4A6432914202D14FF42A
:10062000801101E04FF08071064A083A51600121C3
:1006300080F82110002180F82010416B01B188471B
:10064000204610BD0800024090F8210070470000CD
:1006500070B5044600F01AFA0546601C02D0044842
:100660000078044400F012FA401BA042FAD370BD97
:10067000340000202DE9F84F20287BD102F0C6FF7E
:100680006E4DA869A968DFF8B8A16E4E4FF4004816
:10069000884201D9A87860B1A869A9680027884272
:1006A0002CD8A87850B368A1664803F0A5FA0024B6
:1006B0001AE067A1634803F09FFA002406E066A0F1
:1006C00003F08AFA0A20FFF7C3FF641C315D00299A
:1006D000F5D10120A87000220BE05FA003F07CFAA6
:1006E0000A20FFF7B5FF641C315D0029F5D1AF701A
:1006F00001224146504600F0C4F996E068784F4C1C
:10070000DFF85881223420B16878A946012818D032
:1007100041E020780028F0D1A8680090A378AA6969
:100720004FA1484803F068FA002406E04AA003F00D
:1007300053FA0A20FFF78CFF641C315D0029F5D1C4
:100740006DE0607840B160780F2805D060781E2891
:1007500002D060782D281ED12078E0B9D9F8081091
:100760000091A378D9F818203DA1364803F044FA47
:10077000002507E060E038A003F02EFA0A20FFF71A
:1007800067FF6D1C715D0029F5D1D8F80000476244
:10079000324801F039FA99F80100022822D1607834
:1007A00010B160781E281DD12078D8B9D9F808106A
:1007B0000091A378D9F8182029A1224803F01CFA47
:1007C000002506E024A003F007FA0A20FFF740FF07
:1007D0006D1C715D0029F5D1D8F8000047621F48F3
:1007E00001F012FA99F80110484603291DD16178E9
:1007F000D9B92178C9B981680091A378826918A113
:10080000104803F0F9F9002406E013A003F0E4F91E
:100810000A20FFF71DFF641C315D0029F5D1D8F8CF
:10082000000047620D4801F0EFF95046BDE8F84F6F
:100830004FF4005100F01DB9BDE8F88F0000002012
:10084000001001408200002032412C4C3057000043
:1008500032412C4C3157000025630000B4010020C8
:10086000322C25642C25642C25642C305700000084
:10087000044910B50A68024202D00860FFF7FAFE88
:1008800010BD0000140401402DE9F84FDFF8B891C5
:10089000002409F1040A0AF1040B23460F270BF187
:1008A000040EC9E00125A5402A40AA427DD1674E29
:1008B000D1F804C0ACEB0608B44532D014DCBCF16E
:1008C000030F3AD009DCBCF1000F2AD0BCF1010FB4
:1008D0001CD0BCF1020F31D11DE0BCF1110F17D0BB
:1008E000BCF1120F2AD119E0B8F5881F19D006DC27
:1008F000B8F5803F15D0B8F5801F1FD111E0B8F5CD
:10090000001F0ED0B8F5041F18D10AE0CB6815E01F
:10091000CB681B1D12E0CB6808330FE0CB680C33AB
:100920000CE08B682BB1012B4FF0080303D045611D
:1009300004E0042302E0056100E00023FF2A01D85F
:10094000064601E000F104064FEA840501D9A5F14D
:100950002005D6F8008007FA05FC28EA0C0803FAFF
:1009600005F548EA0508C6F800804D68ED0062D537
:10097000374DAE6946F00106AE61AD6924F003065D
:1009800005F001050095334D06EB050CDCF8085029
:10099000A607360F07FA06F825EA0805DFF8B8803B
:1009A000404503D14FF0000817E044E0DFF8AC8089
:1009B000404502D14FF001080FE0DFF8A480404528
:1009C00002D14FF0020808E0DFF89880404502D1DC
:1009D0004FF0030801E04FF0040808FA06F848EA6F
:1009E0000508CCF808804D68D9F80060ED034D4645
:1009F00001D5164300E096432E604D68DAF800609A
:100A0000AD03554601D5164300E096432E604D6870
:100A1000DBF80060ED025D4601D5164300E0964329
:100A20002E604D68DEF80060AD02754601D51643B4
:100A300000E096432E60641C0D682A46E5407FF472
:100A400031AFBDE8F88F0000000401400000111034
:100A5000001002400000014000080140000C01406D
:100A600000100140001401408068084000D00120BF
:100A70007047C26821EA02030A4043EA0241016169
:100A800070470AB1016170470904FBE701488068BB
:100A90007047000034000020704770472DE9F04196
:100AA000016804464A694E6890F83E000025D74325
:100AB000FA050BD4F243D20508D46FF480720125F5
:100AC0004A6121680A6842F400420A60B90508D404
:100AD000F143C90505D422686FF4007145F00205A1
:100AE0005161790525D4F143C90522D4638D94F869
:100AF0003D10226B202808D13BB9212910D029298B
:100B00000ED0282901D1212A0AD022686FF48061F1
:100B1000516145F00405102806D0402804D008E0B3
:100B2000204602F0EDF904E02068016841F400710C
:100B30000160380508D4F043C00505D421686FF47E
:100B4000006045F008054861002D07D0206C28435F
:100B500020642046BDE8F04101F070BDBDE8F081A1
:100B60002DE9F041026800245168C76A90F83E50B0
:100B700090F83D60102D1CD0402D1AD0036C002B36
:100B80007ED053694FF02805DB439F0779D4CF43CC
:100B9000BF0576D4016C01B1946990F83D30002115
:100BA0009D430B466ED0C91E516180F83C30BDE8B4
:100BB000F081946953694FF42A0CDB435FEAC37EEA
:100BC0004FF02A4604D06745F1D0B742EFD010E08D
:100BD000CF43BF050DD4C16A614501D1012103E0B6
:100BE000C16AB14201D10821C162BDE8F04102F001
:100BF000CBB81E0716D4CE43B60513D4416CC9B288
:100C00001161416B11B9826B002AD0D0896A19B980
:100C1000816B896A0029CAD00068416841F400618B
:100C20004160C4E79E0706D4CE43B60503D4BDE8B1
:100C3000F04101F0FDBFE443526864074FEA0252FD
:100C40001BD4002AB3DB1A0608D4CA43520505D4C4
:100C50005A0705D5BDE8F04101F08EBF5A07A6D46A
:100C6000C9438905A3D4102D03D0BDE8F04102F09B
:100C7000D1B8BDE8F04101F045BF002A97DB02E0A2
:100C800015E029E015E05A0608D4CA43520505D4F8
:100C90005A0705D5BDE8F04101F0FCBD5A0786D4DE
:100CA000C943890583D4BDE8F04101F08ABD946948
:100CB00067E7556825F480655560E243540700D521
:100CC0000121120601D5828900E0028B80F83C30B8
:100CD00092B2FFF7E2FE6AE7DC0606D4CC43A40535
:100CE00003D4BDE8F04102F04DB9212E27D0292EC2
:100CF00025D05C0655D4CC43640552D45B0752D54D
:100D000090F83D10438D002B8BD01269436A1A7006
:100D1000426A521C4262428D521E4285428D002A16
:100D2000D9D12A29D7D101684A6822F480624A6061
:100D30002221016380F83D5000F038FB37E71C06A4
:100D400023D4CC43640520D45B0720D590F83D1014
:100D5000438D002BBFD0436A1B781361426A521C3B
:100D60004262428D521E4285428D002AB3D129290A
:100D7000B1D101684A6822F480624A60212101638E
:100D800080F83D5000F013FB11E75B07A3D4C94383
:100D90008905A0D4418D00299DD0416A097811614F
:100DA0000AE05B0797D4C943890594D4418D002993
:100DB00091D01169426A1170416A491C4162418DAA
:100DC000491E4185F3E67047006C704790F83D007E
:100DD0007047000070B5040025D094F83D00002550
:100DE00020B984F83C50204600F076FA242084F89C
:100DF0003D002068016821F0010101602068016860
:100E000041F4004101602068016821F40041016063
:100E100000F0FCFB4D4A6168914201D84C4900E06A
:100E20004C49884201D2012070BD4B492368B0FB78
:100E3000F1F15E6826F03F060E435E606368934200
:100E400006D94FF4967359434FF47A73B1FBF3F11B
:100E50002368491C1E6A26F03F0631431962616807
:100E6000914210D84900401EB0FBF1F2521CC2F36F
:100E70000B02042A01D2042022E0B0FBF1F0401C56
:100E8000C0F30B001CE0A268F2B301EBC10303EB5B
:100E90000116431EB3FBF6F35B1C43F480431B05B2
:100EA00049D092B301EBC10202EB0111401EB0FB2D
:100EB000F1F0401CC0F30B0040F4804040F40040CF
:100EC0002168CA694CF6FF739A431043C861D4E99C
:100ED000071001432068026822F0C002114301603C
:100EE000D4E9030101432068826848F2FF339A4342
:100EF00011438160D4E9050108432168CA6822F0E2
:100F0000FF021043C86001E00EE016E020680168AF
:100F100041F0010101602564202084F83D00256333
:100F200084F83E50002070BD01EB4106431EB3FB28
:100F3000F6F35B1CB3E70120C2E701EB4101401E61
:100F4000B0FBF1F0401CC0F30B00B7E7A086010036
:100F500080841E0000093D0040420F00704770472A
:100F6000704700002DE9F84F0025DDF828909846DD
:100F700017468A4604460095FFF788FD064694F812
:100F80003D0020287AD1192301228349204600966A
:100F900002F0CCF80028F5D194F83C0001286DD07F
:100FA000012084F83C0020680168C90703D101686A
:100FB00041F0010101602068016821F400610160D5
:100FC000222084F83D00102084F83E0025646762EA
:100FD000A4F82A80608D20857048E06233464A4636
:100FE0005146204601F0CAFC00287DD1208DDFF853
:100FF000B081202768B1012814D002282068016838
:101000001ED041F4806101602068416980690090D0
:10101000B5E02068416981690091016841F400717F
:101020000160ACE02068016821F48061016072B663
:101030002068416981690091016841F400710AE00A
:1010400041F40061016072B62068416981690091D4
:10105000016821F48061016062B690E0032868D8DD
:1010600001280CD002284B464FF000024146204692
:1010700000960FD002F05AF8B0BB10E08AE032467A
:101080004946204602F0D1F870BB20680069616AC9
:1010900008706BE002F04AF830BB72B634E02068AA
:1010A000016821F48061016072B620680069616A9C
:1010B0000870606A401C6062208D401E2085608D33
:1010C000401E6085374846F2A8110068B0FBF1F079
:1010D000C0EBC00000EB80000090401E009008D0E4
:1010E00020684069C04300E029E040070CD5009823
:1010F000F3E744F8305F6773A573206940F0200080
:10110000206162B625731AE02068016841F400711D
:10111000016020680069616A0870606A401C606252
:10112000218D491E2185618D491E618562B6216828
:101130001AE032464946204602F077F810B1012005
:10114000BDE8F88F20680069616A0870606A401C19
:101150006062218D491E2185618D491E618521684E
:101160004A69D24352070AD409690170606A401C77
:101170006062208D401E2085608D401E6085208D20
:1011800000287FF46BAF84F83D7084F83E5084F8FB
:101190003C50D5E70220D3E7020010000000FFFF1B
:1011A00004000100400000202DE9F84F1F46904642
:1011B0008A460446DDF82890FFF768FC054694F857
:1011C0003D0020287FD11923012240492046009567
:1011D00001F0ACFF002876D194F83C00012872D0D1
:1011E000012084F83C0020680168C90703D1016828
:1011F00041F0010101602068016821F40061016093
:10120000212084F83D00102084F83E00002626644A
:10121000C4F824806785608D20852D48E0622B46C8
:101220004A465146204601F01FFC90B920684169AA
:101230008069009036E02A464946204602F028F8A8
:1012400050B1206C042804D12068016841F4007179
:1012500001600120BDE8F88F606A216800780861AC
:10126000606A401C6062618D491E6185218D491E46
:1012700089B2218522685369DB435B070BD451B1E6
:1012800000781061606A401C6062608D401E60855D
:10129000208D401E20852A464946204601F020FF29
:1012A0000028CED1208D0028C5D154F83D0B01680F
:1012B00041F400710160202004F81E09E67766778A
:1012C0000020C7E7FFE70220C4E70000020010008B
:1012D0000000FFFF7047704730B585B000210091D6
:1012E0000191029103912D4D03682D4C122103228F
:1012F0002C48AB4225D1A36943F00803A361A3693D
:10130000039203F008030493C023CDE9003169463A
:10131000FFF7BAFAE06940F40010E061E0690022EA
:1013200000F40010049002211F2000F0A7F81F20F5
:1013300000F096F800220221202000F09FF82020E3
:1013400028E0194DAB4227D1A36943F00803A361FC
:10135000A369039203F0080304934FF44063CDE9BB
:1013600000316946FFF790FAE06940F48000E061DF
:10137000E069002200F4800004900221212000F0A6
:101380007DF8212000F06CF800220221222000F0DC
:1013900075F8222000F064F805B030BD005400401C
:1013A00000100240000C0140005800407047704798
:1013B000024881680278114481607047340000203F
:1013C000074810B5016841F010010160032000F0EA
:1013D00075F8002000F006F800F024F8002010BD99
:1013E0000020024070B50D4D04464FF47A71287804
:1013F000B1FBF0F00A490968B1FBF0F000F0ECFA3B
:1014000048B9102C07D200222146501E00F036F8B1
:1014100000206C6070BD012070BD00003400002011
:10142000400000200C4808B5816941F0010181614C
:10143000816901F001010091C16941F08051C161F0
:10144000C06900F0805000900448416821F0E061DC
:1014500041F00071416008BD0010024000000140F1
:10146000002809DB00F01F020121914040098000A3
:1014700000F1E020C0F8001170470000F0B40E4BFE
:101480001B680C46C3F30223C3F10705042D00D9E2
:101490000425191D072901D2002300E0DB1E0126C7
:1014A00006FA05F1491E214099409E40761E1640DD
:1014B0003143F0BC02F0B4BB0CED00E0064900F093
:1014C000070208684FF6FF03184040EA0220034A6B
:1014D00010430860704700000CED00E00000FA05C2
:1014E0002DE9F0470F46050061D0434E306800F00B
:1014F0000700B84209D2306820F007003843306056
:10150000306800F00700B84251D128683B4C810791
:1015100012D5400703D5606840F4E0606060287829
:10152000000703D5606840F4605060606068A96897
:1015300020F0F000084360602878C00728D0686871
:10154000012810D02168022810D0890700292EDA3E
:10155000616821F0030101436160FFF797FA80465B
:1015600041F288390DE021688903EFE78901EDE751
:10157000FFF78CFAA0EB0801494502D90320BDE82A
:10158000F0876068696800F00C00B0EB810FEFD164
:10159000306800F00700B8420BD9306820F007002F
:1015A00038433060306800F00700B84201D00120B5
:1015B000E5E72878400705D56068E96820F4E06031
:1015C000084360602878000706D56068296920F420
:1015D000605040EAC100606000F038F86168084A75
:1015E000C1F30311515CC840064908600648006811
:1015F000FFF7F8FE0020C2E7002002400010024082
:10160000A44000084000002038000020044805499C
:1016100000684968044AC1F30221515CC840704720
:101620004000002000100240B44000080448054972
:1016300000684968044AC1F3C221515CC840704740
:101640004000002000100240B440000812A185B004
:101650000FC98DE80F0014A0144A00680490516867
:10166000134801F00C03042B10D0082B0ED1C1F34A
:101670008343C9031DF803000AD5516804AAC1F3C6
:101680004041515C0A4A5043B0FBF1F005B070474D
:1016900008494843FAE70000020304050607080961
:1016A0000A0B0C0D0E0F101001020000001002407A
:1016B00000127A0000093D002DE9F84F040070D0B7
:1016C0002078C04DC00749D06868C0F38100012868
:1016D00007D06868C0F38100022809D16868C00398
:1016E00006D52868800339D560680028E7D035E042
:1016F0006068B0F5803F0BD010B1B0F5A02F11D0CD
:10170000286820F480302860286820F4802002E0D7
:10171000286840F480302860606890B1FFF7B6F91F
:1017200006460AE0286840F480202860F0E700BF01
:10173000FFF7ACF9801B642873D828688003F7D5BD
:101740000CE0FFF7A3F9064605E000BFFFF79EF99E
:10175000801B6428F0D828688003F7D420789A4E3C
:1017600080074FF001094FF0000839D5686810F084
:101770000C0F07D06868C0F38100022809D168689F
:10178000C00306D42868800714D52069012808D131
:1017900010E02069B0B1C6F80090FFF777F907466E
:1017A00005E00AE1FFF772F9C01B0228C4D82868D7
:1017B0008007F7D52868616920F0F80040EAC10089
:1017C00028600DE0C6F80080FFF760F9074604E0E6
:1017D000FFF75CF9C01B022823D828688007F7D4DC
:1017E000207800072CD57948A169D9B1C0F80090BC
:1017F000FFF74CF9074604E0FFF748F9C01B022841
:101800000FD8686A8007F7D571484FF4FA5100681D
:10181000B0FBF1F0009000BF0098411E0091FAD299
:101820000EE080E0C0F80080FFF730F9074604E0E2
:10183000FFF72CF9C01B022875D8686A8007F7D417
:101840002078400760D5E8690027C00008D4E8691F
:1018500040F08050E861E869012700F08050009076
:101860005C480168C90513D40168834641F480715E
:101870000160FFF70BF9824606E000BFFFF706F9AB
:10188000A0EB0A0064284ED8DBF80000C005F5D5AF
:10189000E06801280AD008B1052813D0286A20F092
:1018A00001002862286A20F0040002E0286A40F063
:1018B00001002862E06841F2883B98B1FFF7E6F842
:1018C00082460BE0286A40F004002862EEE700BF81
:1018D000FFF7DCF8A0EB0A0159455AD8286A8007BF
:1018E000F6D50CE0FFF7D2F8824605E0FFF7CEF818
:1018F000A0EB0A0159454CD8286A8007F6D41FB1DD
:10190000E86920F08050E861E06988B36968C1F354
:101910008101022944D00228C6F8608004D0FFF774
:10192000B5F8044638E034E0FFF7B0F8074604E0C5
:10193000FFF7ACF8C01B02282BD828688001F7D429
:10194000206AB0F5803F05D16868A16820F40030B6
:1019500008436860D4E908010843696821F47411F8
:1019600008436860C6F86090FFF790F8044606E008
:1019700025E000BFFFF78AF8001B022809D8286875
:101980008001F7D51BE000BFFFF780F8001B02289D
:1019900002D90320BDE8F88F28688001F4D40EE056
:1019A0000128F7D06868226A00F48031914204D19E
:1019B000616A00F47010884201D00120EAE700203B
:1019C000E8E700000010024000004242800442426A
:1019D000400000200070004010B5401EB0F1807F34
:1019E00001D3012010BD4FF0E02460610F2160178A
:1019F00002F016F90020A06107202061002010BD30
:101A00007047704770B590F83C20012A26D0012419
:101A100080F83C40022280F83D2003685A689D68A7
:101A200022F070060A6832435A600D4B02689A42EF
:101A300008D0B2F1804F05D00A4B9A4202D00A4B2F
:101A40009A4204D1496825F080031943916080F8D7
:101A50003D40002180F83C10084670BD022070BD5A
:101A6000002C0140000400400008004010B50400B4
:101A700003D094F83D0010B107E0012010BD002014
:101A800084F83C00204600F01FF8022084F83D0056
:101A9000211D206801F0FAFE012084F8460084F838
:101AA0003E0084F83F0084F8400084F8410084F848
:101AB000420084F8430084F8440084F8450084F828
:101AC0003D00002010BD000000B585B00021009150
:101AD000019102910391344B0268344934489A428F
:101AE00033D18A6942F400628A618A6902F4006231
:101AF00004928A6942F004028A61896901F0040152
:101B00000491811500916946FEF7BEFE0022032173
:101B10001820FFF7B3FC1820FFF7A2FC00220321D6
:101B20001920FFF7ABFC1920FFF79AFC00220321D4
:101B30001A20FFF7A3FC1A20FFF792FC00220321D2
:101B40001B20FFF79BFC1B202AE0B2F1804F0CD03A
:101B50001848824207D1C86940F00200C861C869CC
:101B600000F00200049005B000BDCA6942F0010215
:101B7000CA61CA6902F0010204928A6942F0040251
:101B80008A61896901F0040104910C210091694680
:101B9000FEF77AFE002202211C20FFF76FFC1C20BA
:101BA000FFF75EFCDFE70000002C01400010024060
:101BB000000801400004004090F83D10012901D0C8
:101BC00001207047022180F83D1000680B498842CF
:101BD00008D0B0F1804F05D00949884202D00949A8
:101BE000884204D1816801F00701062903D0016809
:101BF00041F001010160002070470000002C01400D
:101C0000000400400008004090F83D10012901D078
:101C100001207047022180F83D100168CA6842F037
:101C20000102CA6000680B49884208D0B0F1804FB9
:101C300005D00949884202D00849884204D1816808
:101C400001F00701062903D0016841F0010101609C
:101C500000207047002C01400004004000080040B4
:101C60000168CA6822F00102CA6001680A6A41F28A
:101C700011131A4207D10A6A9B101A4203D10A684B
:101C800022F001020A60012180F83D100020704717
:101C900070B5044690F83C00012817D0012584F85F
:101CA0003C50022084F83D002068826822F07702D0
:101CB00022F47F4282600868502830D00DDC202852
:101CC0004DD005DC98B310283BD148E0022070BD10
:101CD000302844D0402834D139E0602828D07028FA
:101CE00006D0B0F5805F2CD0B0F5005F29D10AE0B6
:101CF000CB68D1E90121206801F0FEFD20688168F0
:101D000041F0770109E0CB68D1E90121206801F0B9
:101D1000F3FD2068816841F48041816011E0CA6868
:101D20004968206801F0FAFD5021206807E016E0BC
:101D3000CA684968206801F02FFE6021206801F020
:101D4000E5FD84F83D50002084F83C0070BDCA6871
:101D50004968206801F0E2FD40212068EFE7226831
:101D600001461046EBE770472DE9F041054690F833
:101D70003C000C46012836D0012085F83C008AB38F
:101D8000042A42D02868082A51D0D4E90023E16807
:101D9000066A26F480560662C669076A26F440760B
:101DA00046EA03234FF6FF7606EA013123F4704337
:101DB00019434FF4005627F4005306EA02321A433F
:101DC000C16102622868C16921F44061C16128686B
:101DD000C169A26841EA0221C161002085F83C0086
:101DE000BDE8F08101E00220FAE7D4E90012E368DF
:101DF000286801F0A5FD2868816921F00C01816146
:101E000028688169A26811430FE0D4E90012E368F1
:101E1000286801F0D3FD2868816921F4406181615F
:101E200028688169A26841EA02218161D5E7D4E985
:101E30000027267B016A21F480710162C169036A6F
:101E400021F00301394321F0F00731074FF4007608
:101E500047EA116123F4007306EA02221A43C161C2
:101E600002622868C16921F00C01C1612868C1695A
:101E7000A2681143B0E710B5040003D094F83D0008
:101E800010B107E0012010BD002084F83C0020467E
:101E900000F01EF8022084F83D00211D206801F0AA
:101EA000F5FC012084F8460084F83E0084F83F00E9
:101EB00084F8400084F8410084F8420084F843002C
:101EC00084F8440084F8450084F83D00002010BDEB
:101ED000704770B50446006801694FF00005C943BA
:101EE000890715D4C168C943890711D4E91E016166
:101EF00001202077206880698007204602D0FFF704
:101F000032FF04E000F098F8204600F096F82577BC
:101F100020680169C943490717D4C168C943490703
:101F200013D46FF0040101610220207720688069DA
:101F300010F4407F204602D0FFF715FF04E000F0C8
:101F40007BF8204600F079F8257720680169C943BD
:101F5000090716D4C168C943090712D46FF00801F4
:101F60000161042020772068C0698007204602D0E4
:101F7000FFF7F9FE04E000F05FF8204600F05DF89E
:101F8000257720680169C943C90617D4C168C943C8
:101F9000C90613D46FF01001016108202077206872
:101FA000C06910F4407F204602D0FFF7DCFE04E059
:101FB00000F042F8204600F040F8257720680169DB
:101FC000C943C90708D1C168C943C90704D1891EDB
:101FD0000161204600F032F820680169C943090612
:101FE00009D4C168C943090605D46FF080010161B5
:101FF0002046FFF705FD20680169C943490609D459
:10200000C168C943490605D46FF04001016120460B
:1020100000F056F820680169C94389060BD4C168ED
:10202000C943890607D46FF0200101612046BDE84D
:102030007040FFF7E6BC70BD70477047F8B50068A8
:10204000B0F1804F0CD1164CE16820460025C078D5
:102050000A2906D000B31348FFF702FEE560A57019
:10206000F8BD0028F7D1A06800900D482230837891
:10207000A2690DA1104801F0BFFD00260E4F06E039
:102080000EA001F0A9FD0A20FEF7E2FA761CB95D68
:102090000029F5D1E560F8BDE068401CE060F8BDBE
:1020A00000000020B4010020322C25642C25642C73
:1020B00025642C30570000008200002025630000BA
:1020C0007047704770B5026804461068D16853695C
:1020D00010F00F0F52D003F0010501F490762E435B
:1020E0005FD0C20705D0CA0503D5E26B42F00102FA
:1020F000E263420705D5DA0703D0E26B42F0020241
:10210000E263820705D5DA0703D0E26B42F00402EE
:10211000E263020707D501F020022A4303D0E26BF5
:1021200042F00802E263E26B002A33D0800604D555
:10213000880602D5204601F072FC20684069E16BF8
:10214000C0F38010090700D428B3204601F059FCE1
:102150002068416949061AD5416921F04001416171
:10216000606BA0B12D494163606BFEF721FA002836
:1021700010D0606B416BBDE870400847830610D5F6
:102180008B060ED52046BDE8704001F048BC2046C5
:10219000FFF797FF70BD2046FFF793FF0020E06335
:1021A00070BD03062BD50B0629D594F839002128DC
:1021B000F6D1A068B0F5805F01D12069B0B1206A86
:1021C000411C2162216800784860E08C401E0004B8
:1021D000000CE084E4D12068C16821F08001C16076
:1021E0002068C16841F04001C16070BD206A00886C
:1021F000C0F308005060206A801C2062E5E74006BA
:10220000F3D54806F1D5D168204621F04001D160D0
:10221000202184F8391000F098F970BDF3390008D6
:1022200070B5040004D094F83900002510B106E020
:10223000012070BD84F83850204600F023F8242097
:1022400084F839002068C16821F40051C16020463B
:1022500001F02CFC2068016921F4904101612068A3
:10226000416921F02A0141612068C16841F40051AF
:10227000C160E563202084F8390084F83A0000202A
:1022800070BD000030B585B0002400940194029424
:1022900003940068184988422CD11848816941F498
:1022A00080418161816901F480410491816941F03B
:1022B000040181618069124D00F0040004904FF424
:1022C0000070009002200190032003906946284688
:1022D000FEF7DAFA2815CDE900046946284602948B
:1022E000FEF7D2FA002201212520FFF7C7F82520AA
:1022F000FFF7B6F805B030BD0038014000100240CD
:102300000008014090F83A30202B22D1F9B1F2B107
:1023100090F83830012B1CD081628285C285002163
:10232000C163222280F83A2080F838100168CA6818
:1023300042F48072CA6001684A6942F001024A614F
:102340000068C16841F02001C16000207047012091
:1023500070470220704700002DE9FC47494900689A
:10236000096888427ED1484C4848002622782AB91C
:1023700000214654491CC9B23229FAD34249091DE9
:102380000978572903D08154521C22706FE02670BF
:10239000017832296BD181464078DFF8EC804C28F7
:1023A00008F11C0816D1002539A13848FDF7EEFECA
:1023B00007460AE036A10020FDF7E8FE0746FDF7D4
:1023C00007FF08F805006D1CEDB2002FF2D198F858
:1023D0000000A06099F801004D464F2805D1012268
:1023E000A670D1032B48FEF74CFB68784FF001092B
:1023F000442803D0AA46542813D030E0A8783028C7
:1024000006D0312806D0322806D0332806D02EE058
:1024100066702CE0484602E0022000E00320607075
:1024200025E000261AA11948FDF7B0FE07464546EB
:1024300009E017A10020FDF7A9FE0746FDF7C8FE39
:10244000A855761CF6B2002FF3D169792879CDE929
:102450000001EB78AA786978287801F06BF99AF88E
:10246000010000E00CE0512801D184F8039002B093
:102470000549BDE8F0470122091D0248FFF742BFA8
:10248000BDE8FC874402002000000020500000202E
:102490002C000000001001402DE9F843044690F89C
:1024A00039001F4616460D4620284CD1C5B1BEB195
:1024B00094F83800012846D0012084F838004FF005
:1024C0000008C4F83C80212084F83900FEF7DEFAC9
:1024D000A6848146E684A068B0F5805F03D004E05E
:1024E0000120BDE8F883206928B12E465FF0000581
:1024F00084F838800EE00026FAE78021204601F0BB
:1025000031FBA0B9AEB116F8010B21684860E08C30
:10251000401EE084E08C4B464FF0000200970028FC
:10252000EBD14FF04001204601F01CFB30B10320FD
:10253000D7E735F8020BC0F30800E6E7202084F85F
:1025400039000020CDE70220CBE77047FEE700000E
:102550000148FEF7A3BA0000C40000200148FEF7BE
:10256000FFBA0000C40000200148FEF797BA00003F
:10257000180100200148FEF7F3BA000018010020FE
:1025800038B5406A002190F83D202B4B46F2A81444
:102590001B68B3FBF4F3C3EBC30303EB83030093A8
:1025A0003BB15B1E009303681B689B0505D5009B30
:1025B000F6E7036C43F020030364436B03B19962B5
:1025C000836B03B1996203681C6824F480641C6007
:1025D0004185436B03B15963836B03B1596303684E
:1025E0001C6824F001041C6090F83D402023602CFE
:1025F0000BD0282434EA02020FD080F83D3080F856
:102600003E1000BFFEF7DFFB38BD80F83D3080F89C
:102610003E100164FEF740FA38BD0268136843F0CB
:10262000010313600268136843F48063136001635D
:1026300080F83D40E6E700004000002070B5044609
:1026400090F83D0094F83E10102901D0402906D1A1
:10265000222804D121680A6822F400620A60282135
:1026600031EA00024FF000054FF0200626D0216825
:102670004968090505D4602803D084F83D6084F8D2
:102680003E50256320684168090537D5416821F42B
:1026900000614160606B3D4990F82120012A11D012
:1026A0004163606BFDF784FF38B32068016821F057
:1026B0000101016084F83D60606B1CE0256384F8D3
:1026C0003D10DFE7A06B4163A06BFDF771FFA0B188
:1026D00020684169C943490605D40069616A0870E8
:1026E000606A401C60622068016821F0010101609D
:1026F00084F83D60A06B416B884710E094F83D1072
:10270000602910D04169C943490605D40069616A4E
:102710000870606A401C60622046FEF754FB206C23
:10272000C1071CD115E084F83D6025644169C943A7
:10273000490605D40069616A0870606A401C6062DD
:102740002068016821F0010101602046FEF7A4F92C
:10275000E5E7810703D4410701D4000704D52068C9
:10276000416821F4E061416094F83D00216C490723
:102770000BD5282809D10648E062256384F83D601E
:1027800084F83E502046FEF7E9FB70BD8125000825
:102790000000FFFF01684A69D24352050FD46FF46D
:1027A00080624A61002140F8301F20224273817309
:1027B000026942F0040202610173012070470020A7
:1027C000704710B5C26A438D0168042B06D0438D53
:1027D000032B08D0438D022B1DD012E04A6822F44F
:1027E00080624A600CE04B6823F480634B60042AEB
:1027F00006D0022A04D001680A6822F480620A60C6
:1028000001680969426A1170416A491C4162418D3F
:10281000491E418510BD012A30D0102A2ED0042A2D
:1028200030D0022A2ED00A6842F400720A60016891
:102830000969426A1170416A491C4162428D521E07
:102840004285026812690A70416A491C4162418DE1
:10285000491E418501684A6822F440724A6020217D
:1028600080F83D1090F83E200021402A80F83E106C
:102870000CD012210163FEF772FB10BD0A6822F42E
:102880008062D3E70A6842F48062CFE70163FEF713
:1028900021FD10BD38B590F83D10222914D1418D8D
:1028A000032912D901680969426A1170416A491CF9
:1028B0004162418D491E4185418D032904D1006843
:1028C000416821F48061416038BDC26A022AFBD0B0
:1028D000012901D00029F7D1274946F2A813002287
:1028E0000968B1FBF3F101EB81010091016820233C
:1028F000009C641E009422D00C68A405F8D40C68D7
:1029000024F480640C6001684C6824F4E0644C603A
:1029100001680969446A2170416A491C4162418D1C
:10292000491E418580F83D3090F83E1080F83E20E9
:1029300040291DD012210163FEF711FB38BD046C44
:1029400044F0200404644C6824F4E0644C600168A2
:102950000969446A2170416A491C4162418D491EDE
:10296000418580F83D3080F83E20FEF72CFA38BDD6
:102970000263FEF7AFFC38BD400000202DE9F84FA0
:102980000446C06A1E4693460D4621680A6842F412
:1029900080620A60082807D0012805D010F5803F22
:1029A00002D0206B112804D12068016841F48071A5
:1029B00001604FF001195B4600224946204600960F
:1029C00000F0B4FB4FF4007840B120680068C00507
:1029D00001D5C4F840800320BDE8F88F2069DFF8F6
:1029E00084A0B0F5804F0FD00620216800EAD517EB
:1029F00047F0F000086133465A460AF106012046C6
:102A000000F0C8FB58BB03E0E8B240F001001CE056
:102A10002168E8B2086133465A465146204600F024
:102A2000B9FBE0B92068416981690091016841F40E
:102A3000807101605B46002249462046009600F006
:102A400075FB0028C1D147F0F100216808613346C9
:102A50005A465146204600F09DFB0028BCD001207C
:102A6000BAE7000002000100F8B50446C06A1E463D
:102A70000D461746082807D0012805D010F5803FDD
:102A800002D0206B122804D12068016841F48071C3
:102A90000160134600224FF001112046009600F01D
:102AA00045FB40B120680068C00502D54FF40070B6
:102AB00020640320F8BD2069B0F5804F0ED00620B9
:102AC000216800EAD51040F0F000086133463A462C
:102AD0000B49204600F05EFB78B902E005F0FE00ED
:102AE00000E0E8B221680861054933463A46891F8B
:102AF000204600F04FFB0028DCD00120F8BD00008C
:102B00000800010010B5C16A90F83D20212A0BD1C0
:102B1000428D52B1416A026809781161416A491CCB
:102B20004162418D491E418510BD002220230829A4
:102B300010D020290ED011F5803F0BD001684C68D1
:102B400024F4E0644C601121016380F83E2080F899
:102B50003D300EE001684C6824F4E0644C6001688C
:102B60000C6844F400740C60026380F83D3080F817
:102B70003E20FEF7F5F910BD10B590F83D1090F825
:102B80003E30C26A048DB4B1212903D0402B11D14B
:102B900022290FD1418DE1B390F83E10402942D057
:102BA000416A026809781161416A491C4162418D9C
:102BB000491E418510BD2129E8D120230021082A82
:102BC00013D0202A11D012F5803F0ED0026854682D
:102BD00024F4E06454601122026380F83E1080F80F
:102BE0003D3000BFFEF7BCF910BD0268546824F404
:102BF000E06454600268146844F400741460016373
:102C000080F83D3090F83E2080F83E10402AE9D10F
:102C100000E002E0FEF75FFB10BD0068416821F4B0
:102C20008061416010BDBDE8104000F0F3B80000C5
:102C300078B590F83E50C26A046B90F83D6000236E
:102C40000168222E73D1066D0EB9402D6FD0056D2F
:102C50001DB90569B5F5404F1BD0458D95B3468D1F
:102C6000484D012E20D0448D022C4DD00C6844F4E8
:102C700080640C6001684C68240579D5AA4273D041
:102C8000012A71D0082A6FD0102A6DD0202A6BD06B
:102C90006EE04A698A6900920A6842F480720A60AA
:102CA000016D491C016578BDAA4214D10A6822F45D
:102CB00080620A6001684A68120504D50A6822F435
:102CC000806217E0FFE74A698A6900920A6842F465
:102CD00000720A6050E0082A10D0202A0ED0122C70
:102CE0000AD0042A03D0022A01D0102AE6D10A68A9
:102CF00042F480620A603BE0012ADFD00A6822F4D5
:102D000080620A600168DEE7042A11D0022A0FD02F
:102D1000102A0DD00C6844F400640C6001684C6902
:102D20008C6900940C6824F480640C6008E025E051
:102D30000C6844F480640C6001684C6989690091F6
:102D400001684C68240517D5AA4207D0012A05D08E
:102D5000082A03D0102A01D0202A0DD14A6842F453
:102D600080524A6008E0FFE74A6842F480524A60B5
:102D700001684A6989690091036578BD4869886975
:102D8000009078BD0000FFFF90F83E10402910D061
:102D90000169B1F5804F19D0016DA9B3016D012909
:102DA00010D1416C5FF0F10201F4407142EAD1119F
:102DB00006E0016D0029416C05D0C9B241F0010166
:102DC00000680161704701F0FE01F9E790F83D10DD
:102DD0002129416C09D0C9B241F001010268116199
:102DE000416B29B1896A49B902E001F0FE01F5E7BA
:102DF000816B0029E6D0896A0029E3D00068416828
:102E000041F4006141607047FFE7416CF02201F43A
:102E10004071CBE710B590F83D10026D22B3026D02
:102E2000012A2FD0026D022A1DD1222931D0428DD4
:102E30000AB1212933D0428D002A14D1212912D17F
:102E400001684A6822F4E0624A6001680A6842F454
:102E500000720A6000210163202280F83D2080F882
:102E60003E10FEF738FA10BDC16C0129816C02D00A
:102E7000C1F3072108E00268C9B21161016D891C24
:102E8000016510BD816CC9B202681161016D491CF8
:102E9000F6E70068016841F48071016010BD416A85
:102EA000026809781161416A491C4162418D491EDD
:102EB000418510BD0FB42DE9F8434FF40055DDE90D
:102EC0001D870D4E4FF47A7408E008A8FDF77CFFCB
:102ED000042803D029463046FDF7CBFD3B46074A80
:102EE000414608A80094FEF73DF80028EDD1BDE862
:102EF000F8035DF814FB00000010014029000020D9
:102F00002DE9F04190F83D40C26A002320261C4F75
:102F100001686FF48065082A01D0202A01D1282C8D
:102F200004D0212C16D04D61BDE8F081C7624A68FB
:102F300022F4E0624A6001684D6101680A6822F487
:102F400080620A60036380F83D6080F83E30FEF7DF
:102F500005F8E9E7C7622122026380F83D6080F846
:102F60003E304A6822F4E0624A6001684D610168BF
:102F70000A6822F480620A60FEF719FAD4E70000BA
:102F80000000FFFFF8B590F83D6004460068416816
:102F900021F4E061416020680025416900910168E9
:102FA00041F0010101602068016821F48061016045
:102FB00020684168090520D5474F222E48D02A2E87
:102FC00046D0616B096849686185618D19B1216CD2
:102FD00041F004012164416821F400614160606BAB
:102FE000FDF732FB012808D0606B4763606BFDF78B
:102FF000DFFA10B1606B416B8847608D08B32068C1
:103000004169C943490708D40069616A0870606A68
:10301000401C6062608D401E608520684169C94324
:10302000490608D40069616A0870606A401C6062E1
:10303000608D401E6085608D18B1206C40F00400EA
:103040002064206C00B32046BDE8F840FFF7F6BAD4
:10305000A16B096849686185618D19B1216C41F0E6
:1030600004012164416821F400614160A06BFDF717
:10307000EBFA0128C1D0A06B4763A06BFDF798FA6B
:103080000028BAD0A06BB6E72A2E06D125632820E7
:1030900084F83D002046FEF789F994F83D10202081
:1030A00028290DD0216B222901D0222E07D125639A
:1030B00084F83D0084F83E502046FEF777F9F8BDCD
:1030C0000649E162256384F83D0084F83E502046BD
:1030D000FDF744FFF8BD0000812500080000FFFF58
:1030E00070B516460D4604460DE02046FFF752FB2C
:1030F00008B1012070BD681C05D0FDF7C7FC801B1E
:10310000A84207D835B120684069C0434007ECD4D5
:10311000002070BD002044F8300F20216173A0739F
:10312000216941F0200121612073E2E72DE9F04798
:103130001E4690460D460446C1F30747DDF8209031
:1031400008E0701C06D0FDF7A1FCA0EB0900B0421E
:103150000FD876B12068012F18D0806925EA0000C9
:103160000004000C14D000214145EAD00020BDE845
:10317000F087002044F8300F20216173A07321698B
:1031800041F02001216120730120F0E74069E5E76B
:103190000121E9E72DE9F0479A4691460E4604469B
:1031A00000254FF02008C1F3074725E0206840695B
:1031B000C043400514D42068016841F400710160E7
:1031C00021686FF480604861256384F83D8084F84D
:1031D0003E50206C40F00400206484F83C501FE016
:1031E000B9F1FF3F08D0FDF751FCA0EB0A014945BA
:1031F0000CD8B9F1000F09D02068012F13D08069D5
:1032000026EA00000004000C0BD0CFE744F8305F42
:1032100084F80D80A573206940F02000206125739B
:103220000120BDE8F0874069EAE72DE9F04100257B
:1032300090460E460446202717E04069C043C0066A
:103240000CD454F8301B6FF01000486144F810594A
:103250006777A577206A2062257717E0FDF716FCCF
:10326000A0EB0800B04208D83EB120684169C943CC
:103270004906E2D40020BDE8F08144F8305F67736E
:10328000A573206940F02000206125730120F2E73A
:1032900070B516460D4604460DE02046FFF77AFA53
:1032A00008B1012070BD681C05D0FDF7EFFB801B45
:1032B000A84207D835B120684069C0430006ECD465
:1032C000002070BD002044F8300F20216173A073EE
:1032D000216941F0200121612073E2E70FB42DE95B
:1032E000F8434FF40055DDE91D870D4E4FF47A7415
:1032F00008E008A8FDF768FD042803D029463046F9
:10330000FDF7B7FB3B46074A414608A80094FDF786
:103310004BFF0028EDD1BDE8F8035DF814FB000079
:1033200000100140290000202DE9F04F85B0002455
:1033300053480094019402940394816941F0100170
:103340008161816901F010010491816941F02001DE
:103350008161816901F020010491816941F00401DA
:103360008161816901F004010491816941F00801E2
:1033700081618069DFF80C9100F008000490002260
:103380004FF460414846FDF77CFBDFF8FCA00022CB
:1033900001215046FDF775FBDFF8F0B00122032153
:1033A0005846FDF76EFB4FF4C05801224146504687
:1033B000FDF767FB00224FF402715846FDF761FBF1
:1033C0004FF4005001250326CDE90005CDE9024662
:1033D00069464846FDF758FAB0030227CDE90005D3
:1033E000CDE9024769464846FDF74EFA0397009536
:1033F000CDE9015469465046FDF746FAF220CDE981
:103400000004694650460294FDF73EFA40F203205C
:10341000CDE90005CDE9024669465846FDF734FA84
:10342000CDF800800396CDE9015469465046FDF77A
:103430002BFA0820CDE90005CDE902476946584638
:10344000FDF722FA4FF48870CDE90004694658462A
:103450000294FDF719FA202000900D48CDE90104EF
:1034600069465846FDF710FA002204211720FEF79E
:1034700005F81720FDF7F4FF05B0BDE8F08F000058
:10348000001002400010014000080140000C014003
:103490000000111010B58AB000241B480494059454
:1034A0000694079408940994009401940294154991
:1034B000039401604721C0E901144FF6FF71C0E990
:1034C000031444618461FEF7D1FA4FF480500490F4
:1034D00004A90D48FEF7DCFB0B48FEF7CCFC089472
:1034E00008A909480994FEF78DFA0120CDE90040AA
:1034F00002940022694604480394FEF735FC0AB0A2
:1035000010BD0000002C01406C01002010B58AB0F5
:1035100000241D4804940594069407940894099483
:103520000094019402944FF080410394016041F6AD
:103530001F41C0E9011442F21071C0E90314846113
:10354000FEF794FA4FF48050049004A90E48FEF759
:103550009FFB0D48FEF78FFC089408A90A480994C0
:10356000FEF750FA0120CDE9004002940822694696
:1035700005480394FEF7F8FB0C2269460248FEF763
:10358000F3FB0AB010BD0000B401002010B586B0F6
:1035900000241248009401940294039404940E4968
:1035A000059401604721C0E901144FF6FF71C0E99D
:1035B00003148461FEF75AFA4FF480500090694674
:1035C0000648FEF765FB049404A904480594FEF739
:1035D00019FA06B010BD000000040040FC010020F4
:1035E000FEE77047704700F00F01001100EB80000C
:1035F00001EB400070470A2190FBF1F201FB12023F
:1036000090FBF1F002EB001070470000F0B5474D61
:10361000A9B0002028702A22454913A8FCF792FD82
:10362000434C608DADF87600E06A1E90206B1F90D1
:1036300004F1340109220F4620A8FCF783FD94F819
:103640003D008DF8890094F83E008DF88A00206CCA
:103650002390606C2490A06C2590E06C2690206DE7
:1036600027900120D026CDE91160442217A9684691
:10367000FCF768FD0DF14C0C9CE80F00FFF72EFEE7
:103680002B48FDF7A3FB2028FAD12A22284913A8AA
:10369000FCF758FD608DADF87600E06A1E90206B57
:1036A0001F900922394620A8FCF74CFD94F83D00F4
:1036B0008DF8890094F83E008DF88A00206C2390E4
:1036C000606C2490A06C2590E06C2690206D279073
:1036D0000720CDE91160442217A96846FCF732FDA6
:1036E0000DF14C0C9CE80F00FFF7E4FB2878FFF786
:1036F0007AFF0E4AD21F10706878FFF774FF50707F
:10370000A878FFF770FF9070E878FFF76CFFD07033
:103710002879FFF768FF10716879FFF764FF50712F
:10372000A879FFF760FF907129B0F0BD2900002053
:10373000C40000202DE9F041A8B09846DDE92E45EF
:103740002B4B0646002018700F461046FFF753FF1C
:1037500058703846FFF74FFF98703046FFF74BFF21
:10376000D8704046FFF747FF58712046FFF743FFE8
:1037700098712846FFF73FFFD8712A221D4913A8E8
:10378000FCF7E0FC1B4C608DADF87600E06A1E9003
:10379000206B1F90092204F1340120A8FCF7D2FC11
:1037A00094F83D008DF8890094F83E008DF88A0069
:1037B000206C2390606C2490A06C2590E06C269087
:1037C000206D27900821D020CDE91101442217A9AE
:1037D0006846FCF7B7FC0DF14C0C9CE80F00FFF7B6
:1037E0007DFD28B06420BDE8F041FCF731BF00004A
:1037F00029000020C40000207047FDF7D9BD30B576
:103800008FB028216846FCF7B6FC14210AA8FCF703
:10381000B2FC01210804CDE9001000240294022525
:103820000491CDE907504FF4E01009906846FDF788
:1038300043FF0F20CDE90A056802CDE90C400221C3
:103840000AA80E94FDF74CFE0FB030BD7047000083
:103850000148FEF73EBB00006C0100200148FEF766
:1038600038BB00006C0100200148FEF732BB0000AD
:103870006C0100200148FEF72CBB00006C01002009
:103880000148FEF726BB0000B4010020F0B5026835
:10389000164B174C174D4FF08047984205D0B84251
:1038A00003D0A04201D0A84203D122F070064A689A
:1038B0003243984205D0B84203D0A04201D0A8427A
:1038C00003D122F44074CA6822434C6922F080027A
:1038D000224302608A68C2620A688262984201D109
:1038E0000969016301214161F0BD0000002C014024
:1038F000000400400008004010B5846842EA03223A
:1039000024F47F440A432243826010BD826822F07F
:1039100070020A4342F007018160704710B5036AE4
:10392000046A24F001040462846924F0F00444EA87
:10393000021423F00A020A438461026210BD0000EF
:1039400070B5046A24F0010404628469056A0F4EAC
:10395000B04208D0B0F1804F05D00D4EB04202D039
:103960000C4EB04203D124F00304144301E044F0B0
:1039700001041A0724F0F00444EA126225F00A0355
:1039800001F00A0119438261016270BD002C0140FF
:10399000000400400008004010B5036A23F0100343
:1039A00003628369046A23F4704343EA023224F019
:1039B000A00343EA01118261016210BD30B5046ABF
:1039C00024F0100404628469056A24F4407444EA13
:1039D000022222F470444FF6FF7202EA03322243BD
:1039E000A02425F0A00304EA0111194382610162B9
:1039F00030BD10B5406A0021C185C184FEF761FB6E
:103A000010BD0168CA6822F49072CA6001684A69F0
:103A100022F001024A61202180F83A10704710B567
:103A200090F83A10222901D0022010BD82684FF48C
:103A300080539A4201D1016921B1816A9A421BD017
:103A40004AB10AE00268816A5268C2F308020A8039
:103A5000816A891C08E0026972B10268526802F04A
:103A60007F020A70816A491C8162C18D491E090466
:103A7000090CC18503D016E002685268F1E70168BD
:103A8000CA6822F02002CA600168CA6822F4807203
:103A9000CA6001684A6922F001024A61202180F867
:103AA0003A10FEF759FC002010BD000070B5044626
:103AB00000680169E26821F4405111430161216904
:103AC000A0680843616908432168CA6841F20C6331
:103AD0009A430243CA6020684169A26921F4407197
:103AE000114341611E492068884202D1FDF79EFDC5
:103AF00001E0FDF78BFD00EBC00101EB00126068F7
:103B000064218000B2FBF0F3B3FBF1F36FF0180611
:103B10007343B2FBF0F5B2FBF0F605EB83053223FD
:103B200003EB0515B5FBF1F5B6FBF1F605F0F00575
:103B300005EB0615B2FBF0F6B2FBF0F0B0FBF1F0CE
:103B40006FF01802504306EB800003EB0010B0FB4F
:103B5000F1F0216800F00F002844886070BD00007B
:103B6000003801402DE9F041984617460E460446BC
:103B7000069D1DE0681C1BD02DB1FCF787FFA0EB54
:103B80000800A84214D92068C16821F4D071C1602E
:103B90002068416921F001014161202084F8390049
:103BA00084F83A00002084F838000320BDE8F08152
:103BB0002068006836EA000004D00020B842D9D05E
:103BC0000020F3E70120F9E70148FEF77BBA000087
:103BD00044020020FEE700000FB4054B10B503A916
:103BE000044A029800F040F810BC5DF814FB000095
:103BF000453E0008480000200FB4084B10B504A94A
:103C000002AA039800F030F8044602A9002000F050
:103C100007F9204610BC5DF814FB0000213E0008A7
:103C20000907090E002804DB00F1E02080F80014E9
:103C3000704700F00F0000F1E02080F8141D70477D
:103C4000004870474C00002002E008C8121F08C15D
:103C5000002AFAD170477047002001E001C1121F0D
:103C6000002AFBD1704700002DE9FF4F8BB09A4628
:103C70000F460546002606E025280BD052460D9932
:103C800090476D1C761C28780028F5D10FB030467F
:103C9000BDE8F08F0024A0460122604900E0044303
:103CA00015F8013F203B02FA03F00842F7D12878CB
:103CB0002E2817D115F8010F44F004042A280ED03D
:103CC0006FF02F022878A0F1300109290AD808EBFB
:103CD000880102EB410100EB01086D1CF2E757F887
:103CE000048B6D1C287869283ED006DC0028CDD0D6
:103CF00063280BD0642804D136E0732810D07528CF
:103D00004BD052460D999047761C85E017F8040B6E
:103D10008DF8000000208DF80100E946012003E045
:103D200057F8049B4FF0FF3061074FF0000401D4B7
:103D30000AE0641C44450DDA8442FADB19F80410E9
:103D40000029F6D106E0641C8442FCDB19F804105B
:103D50000029F8D1264404E019F8010B52460D99C8
:103D60009047641EF8D257E001CF4FF00A0B0028AD
:103D700002DA40422D2102E0210504D52B218DF8E5
:103D80002410012103E0E10705D02021F7E70DF120
:103D9000200908910CE00021F9E701CF4FF00A0B50
:103DA000F9E75946FCF7D0FA01F1300209F8012D84
:103DB0000028F6D1ADEB090000F1200B600701D41B
:103DC0004FF00108D84502DDA8EB0B0000E0002011
:103DD0008046002406E009A85246005D0D999047F0
:103DE000641C761C08988442F5DB04E030205246BF
:103DF0000D999047761CB8F10001A8F10108F5DC97
:103E000005E019F8010B52460D999047761CBBF15D
:103E10000001ABF1010BF4DC6D1C34E70928010053
:103E20000A68531C0B6010707047000004490022A0
:103E30000B685A6209684A6A8242FCD370470000E4
:103E4000FC01002013B54FF6FF73012269460248BA
:103E5000FEF722FB00981CBD4402002070B5164DF1
:103E600000202861024601211448FCF70AFE0220C6
:103E7000FFF7DCFF124C012208212046FCF701FE6F
:103E80000A20FFF7D3FF002208212046FCF7F9FDA6
:103E900010212046FCF7E8FD0028F9D004E0401C82
:103EA00028610120FFF7C2FF10212046FCF7DCFD4E
:103EB00000282869F3D170BD0000002000080140EF
:103EC000000C014008B5FDF77BFAFFF798FCFFF7FF
:103ED0002BFA65486349654E00240160C0E901641E
:103EE0004FF48048C0E9034844618461C461454699
:103EF0000462FCF76FFF5C485D4954300160C0E923
:103F00000164C0E9034544618461C4610462FCF753
:103F100061FFFFF7BFFAFFF7F9FAFFF737FB5648E3
:103F2000544901604FF41651C0E901140C21C460DA
:103F3000C0E904418461C461FEF772F94FF4FA7478
:103F40002046FCF785FB4C484838FDF735FE4B4DC5
:103F500000224FF4C0512846FCF793FDDFF8209172
:103F600001224FF440414846FCF78BFD01224549B0
:103F70004148FEF7C7F92046FCF76AFB414C3A4E30
:103F8000241FDFF804B104F1220A423EFFF766FF66
:103F900060616069FCF7B2F95A463C4BFCF725F9C1
:103FA0004FF0FF32FCF793F9FCF7B5F9A06110214F
:103FB0002846FCF759FD28BB10212846FCF754FD84
:103FC0000028F9D0002241464846FCF75AFDA06877
:103FD00000909AF80230A26923482DA14238FFF7D9
:103FE0000BFE002706E02EA0FFF7F6FD0A20FCF7E7
:103FF0002FFB7F1CF15D0029F5D101224146484687
:10400000FCF73FFD20212846FCF72EFD28BB202190
:104010002846FCF729FD0028F9D0002241464846F1
:10402000FCF72FFDA06800909AF80230A2690E48B4
:1040300017A14238FFF7E0FD002706E018A0FFF7C0
:10404000CBFD0A20FCF704FB7F1CF15D0029F5D1B4
:10405000012241464846FCF714FDC820FCF7F8FA57
:1040600094E7000000540040C4000020A086010036
:104070000058004000380140440200200008014080
:1040800000100140040000209CC420B07268A13FD1
:10409000322C25642C25642C25642C30570000001C
:1040A000256300000000000000000000010203047E
:1040B0000607080900000000010203040040404018
:1040C00040404040404041414141414040404040EB
:1040D0004040404040404040404040404005020297
:1040E0000202020202020202020202020220202056
:1040F00020202020202020020202020202029090B2
:1041000090909090101010101010101010101010AF
:104110001010101010101010020202020202888803
:10412000888888880808080808080808080808080F
:1041300008080808080808080202020240000000F7
:10414000BD4000086441000800000020500000004D
:10415000483C0008B4410008500000203806000028
:10416000583C00080000000000000000C8000000EB
:10417000000000000000000000000000000000003F
:10418000000000000000000000000000000000002F
:10419000000000000000000001000000100000000E
:1041A000000000000024F4000000000000000000F7
:0441B000000000000B
:04000005080000ED02
:00000001FF
