:020000040800F2
:1000000018040020010100087B0C0008F70B000811
:10001000790C00086F020008D50C000800000000F1
:100020000000000000000000000000007F0C00083D
:1000300071020008000000007D0C0008810C00081F
:100040001B0100081B0100081B0100081B01000820
:100050001B0100081B0100081B0100081B01000810
:100060001B0100081B0100081B0100081B01000800
:100070001B0100081B0100081B0100081B010008F0
:100080001B0100081B0100081B0100081B010008E0
:100090001B0100081B0100081B0100081B010008D0
:1000A0001B0100081B0100081B0100081B010008C0
:1000B0001B0100081B0100081B0100081B010008B0
:1000C0001B0100081B0100081B0100081B010008A0
:1000D0001B0100081B0100081B0100081B01000890
:1000E0001B0100081B0100081B010008DFF80CD0F1
:1000F00000F09CF800480047150D00081804002087
:100100000648804706480047FEE7FEE7FEE7FEE7B1
:10011000FEE7FEE7FEE7FEE7FEE7FEE7D30C00089A
:10012000ED0000082DE9F0410024061B254671F181
:10013000000605DA01240027D0EB070067EB010178
:10014000161E73F1000605DA0027D2EB070201251F
:1001500067EB030300F039F886460E4617469C46C7
:10016000AC4204D00025D0EB050E65EB010624B1AE
:100170000020D2EB000760EB030C704631463A4694
:100180006346BDE8F081202A04DB203A21FA02F020
:100190000021704721FA02F3D040C2F120029140C1
:1001A000084319467047D2B201E000F8012B491EFE
:1001B000FBD270470022F6E710B513460A46044604
:1001C0001946FFF7F0FF204610BD2DE9F05F054608
:1001D000002092469B4688460646814640241BE006
:1001E0002846414647462246FFF7CDFF53465A462A
:1001F000C01A914110D311461846224600F028F843
:100200002D1A67EB01084F4622460120002100F01D
:100210001FF817EB00094E41201EA4F10104DFDC9A
:10022000484631462A464346BDE8F09F064C074DF6
:1002300006E0E06840F0010394E8070098471034B6
:10024000AC42F6D3FFF756FF500D0008700D0008C2
:10025000202A04DB203A00FA02F100207047914086
:10026000C2F1200320FA03F3194390407047FEE7E0
:100270007047000070B5044600F008F90546601CA0
:1002800002D004480078044400F000F9401BA0426A
:10029000FAD370BD040000202DE9F84FDFF8B891C3
:1002A000002409F1040A0AF1040B23460F270BF17D
:1002B000040EC9E00125A5402A40AA427DD1674E1F
:1002C000D1F804C0ACEB0608B44532D014DCBCF164
:1002D000030F3AD009DCBCF1000F2AD0BCF1010FAA
:1002E0001CD0BCF1020F31D11DE0BCF1110F17D0B1
:1002F000BCF1120F2AD119E0B8F5881F19D006DC1D
:10030000B8F5803F15D0B8F5801F1FD111E0B8F5C2
:10031000001F0ED0B8F5041F18D10AE0CB6815E015
:10032000CB681B1D12E0CB6808330FE0CB680C33A1
:100330000CE08B682BB1012B4FF0080303D0456113
:1003400004E0042302E0056100E00023FF2A01D855
:10035000064601E000F104064FEA840501D9A5F143
:100360002005D6F8008007FA05FC28EA0C0803FAF5
:1003700005F548EA0508C6F800804D68ED0062D52D
:10038000374DAE6946F00106AE61AD6924F0030653
:1003900005F001050095334D06EB050CDCF808501F
:1003A000A607360F07FA06F825EA0805DFF8B88031
:1003B000404503D14FF0000817E044E0DFF8AC807F
:1003C000404502D14FF001080FE0DFF8A48040451E
:1003D00002D14FF0020808E0DFF89880404502D1D2
:1003E0004FF0030801E04FF0040808FA06F848EA65
:1003F0000508CCF808804D68D9F80060ED034D463B
:1004000001D5164300E096432E604D68DAF800608F
:10041000AD03554601D5164300E096432E604D6866
:10042000DBF80060ED025D4601D5164300E096431F
:100430002E604D68DEF80060AD02754601D51643AA
:1004400000E096432E60641C0D682A46E5407FF468
:1004500031AFBDE8F88F000000040140000011102A
:10046000001002400000014000080140000C014063
:1004700000100140001401408068084000D00120B5
:1004800070470AB1016170470904FBE701488068C1
:10049000704700000400002002488168027811447F
:1004A0008160704704000020074810B5016841F0E2
:1004B00010010160032000F067F8002000F006F84A
:1004C00000F024F8002010BD0020024070B50D4D52
:1004D00004464FF47A712878B1FBF0F00A490968B4
:1004E000B1FBF0F000F0C4FA48B9102C07D200229A
:1004F0002146501E00F028F800206C6070BD0120DD
:1005000070BD000004000020100000200C4808B559
:10051000816941F001018161816901F0010100916E
:10052000C16941F08051C161C06900F08050009004
:100530000448416821F0E06141F00071416008BD6C
:100540000010024000000140F0B40E4B1B680C4646
:10055000C3F30223C3F10705042D00D90425191D97
:10056000072901D2002300E0DB1E012606FA05F16F
:10057000491E214099409E40761E16403143F0BCF2
:1005800000F0A9BB0CED00E0064900F00702086886
:100590004FF6FF03184040EA0220034A1043086068
:1005A000704700000CED00E00000FA052DE9F0476F
:1005B0000F46050061D0434E306800F00700B84296
:1005C00009D2306820F0070038433060306800F00E
:1005D0000700B84251D128683B4C810712D540072B
:1005E00003D5606840F4E06060602878000703D5B8
:1005F000606840F4605060606068A96820F0F000B6
:10060000084360602878C00728D06868012810D0A7
:100610002168022810D0890700292EDA616821F0AC
:10062000030101436160FFF731FF804641F28839E1
:100630000DE021688903EFE78901EDE7FFF726FF69
:10064000A0EB0801494502D90320BDE8F0876068A6
:10065000696800F00C00B0EB810FEFD1306800F05A
:100660000700B8420BD9306820F0070038433060EB
:10067000306800F00700B84201D00120E5E7287893
:10068000400705D56068E96820F4E06008436060D1
:100690002878000706D56068296920F4605040EA90
:1006A000C100606000F01EF86168084AC1F30311E0
:1006B000515CC8400649086006480068FFF706FF1D
:1006C0000020C2E70020024000100240400D000858
:1006D000100000200800002001480068704700005A
:1006E0001000002012A185B00FC98DE80F0014A0E2
:1006F000144A006804905168134801F00C03042B5D
:1007000010D0082B0ED1C1F38343C9031DF8030099
:100710000AD5516804AAC1F34041515C0A4A5043CA
:10072000B0FBF1F005B0704708494843FAE7000014
:1007300002030405060708090A0B0C0D0E0F101022
:10074000010200000010024000127A0000093D0082
:100750002DE9F84F040070D02078C04DC00749D073
:100760006868C0F38100012807D06868C0F3810081
:10077000022809D16868C00306D52868800339D5E6
:1007800060680028E7D035E06068B0F5803F0BD0A6
:1007900010B1B0F5A02F11D0286820F48030286067
:1007A000286820F4802002E0286840F48030286027
:1007B000606890B1FFF76AFE06460AE0286840F4D8
:1007C00080202860F0E700BFFFF760FE801B6428F0
:1007D00073D828688003F7D50CE0FFF757FE06466C
:1007E00005E000BFFFF752FE801B6428F0D82868A0
:1007F0008003F7D420789A4E80074FF001094FF01C
:10080000000839D5686810F00C0F07D06868C0F38D
:100810008100022809D16868C00306D428688007CF
:1008200014D52069012808D110E02069B0B1C6F8BC
:100830000090FFF72BFE074605E00AE1FFF726FED2
:10084000C01B0228C4D828688007F7D528686169CA
:1008500020F0F80040EAC10028600DE0C6F80080F2
:10086000FFF714FE074604E0FFF710FEC01B022846
:1008700023D828688007F7D4207800072CD579483A
:10088000A169D9B1C0F80090FFF700FE074604E067
:10089000FFF7FCFDC01B02280FD8686A8007F7D558
:1008A00071484FF4FA510068B0FBF1F0009000BFBE
:1008B0000098411E0091FAD20EE080E0C0F800805E
:1008C000FFF7E4FD074604E0FFF7E0FDC01B022848
:1008D00075D8686A8007F7D42078400760D5E86942
:1008E0000027C00008D4E86940F08050E861E8695A
:1008F000012700F0805000905C480168C90513D4BE
:100900000168834641F480710160FFF7BFFD8246B4
:1009100006E000BFFFF7BAFDA0EB0A0064284ED83E
:10092000DBF80000C005F5D5E06801280AD008B161
:10093000052813D0286A20F001002862286A20F0D8
:10094000040002E0286A40F001002862E06841F2F9
:10095000883B98B1FFF79AFD82460BE0286A40F089
:1009600004002862EEE700BFFFF790FDA0EB0A014C
:1009700059455AD8286A8007F6D50CE0FFF786FD5E
:10098000824605E0FFF782FDA0EB0A0159454CD8ED
:10099000286A8007F6D41FB1E86920F08050E8612A
:1009A000E06988B36968C1F38101022944D0022853
:1009B000C6F8608004D0FFF769FD044638E034E0F3
:1009C000FFF764FD074604E0FFF760FDC01B022847
:1009D0002BD828688001F7D4206AB0F5803F05D174
:1009E0006868A16820F4003008436860D4E9080111
:1009F0000843696821F4741108436860C6F8609080
:100A0000FFF744FD044606E025E000BFFFF73EFD8A
:100A1000001B022809D828688001F7D51BE000BF19
:100A2000FFF734FD001B022802D90320BDE8F88F30
:100A300028688001F4D40EE00128F7D06868226AA3
:100A400000F48031914204D1616A00F47010884250
:100A500001D00120EAE70020E8E700000010024092
:100A6000000042428004424210000020007000401A
:100A700010B5401EB0F1807F01D3012010BD4FF0B2
:100A8000E02460610F21601700F025F90020A061CB
:100A900007202061002010BD70B5074C0546666830
:100AA000FFF71AFE0549B0FBF1F169436068801B4E
:100AB0008842FBD370BD0000001000E040420F00F0
:100AC0002DE9FF410120460201AA002403250096DA
:100AD00082E83100114F69463846FFF7DDFB7010A0
:100AE000CDE9000469463846CDE90245FFF7D4FB5D
:100AF000012231463846FFF7C4FC0A20FFF7BAFB53
:100B0000002231463846FFF7BCFC0A20FFF7B2FB53
:100B1000082000F055F8BDE8FF810000000C0140FE
:100B20002DE9F0410024FFF7B1FC05464FF4807633
:100B3000224F07E0FFF7AAFC401B962802D90020AD
:100B4000BDE8F08131463846FFF796FC0128F1D028
:100B5000B0463E4600254FF4007701223946304624
:100B6000FFF78FFC0120FFF797FF64000022394652
:100B70003046FFF786FC0120FFF78EFF41463046E6
:100B8000FFF77AFC012800D1641C6D1C6DB2182D92
:100B9000E3DB84F40004012239463046FFF771FCA0
:100BA0000120FFF779FF002239463046FFF769FC44
:100BB0000120FFF771FF2046C2E70000000C014052
:100BC0002DE9F041002507462C462E4609E000BFDE
:100BD000FFF7A6FF01464D1906F1010644EBE0744C
:100BE000B6B2BE42F4D33A46002328462146FFF768
:100BF00099FABDE8F081FEE770B586B000241C4884
:100C00000094019402940394816941F02001816170
:100C1000816901F020010491816941F00401816141
:100C2000816901F004010491816941F00801816149
:100C30008069104E00F008004FF400750490002207
:100C400029463046FFF71DFC6810CDE900046946CF
:100C500030460294FFF720FB01200095CDE9010406
:100C60000220039069463046FFF716FB06B070BDC0
:100C700000100240000C0140FEE7704770477047CB
:100C8000FFF70ABC30B58FB028216846FFF792FA0B
:100C900014210AA8FFF78EFA01210804CDE90010FB
:100CA0000024029402250491CDE907504FF4E0108E
:100CB00009906846FFF74CFD0F20CDE90A05680250
:100CC000CDE90C4002210AA80E94FFF76FFC0FB08B
:100CD00030BD7047FEE70907090E002804DB00F16C
:100CE000E02080F80014704700F00F0000F1E020D1
:100CF00080F8141D704702E008C8121F08C1002ABE
:100D0000FAD170477047002001E001C1121F002A8C
:100D1000FBD17047FFF7C8FBFFF7B4FFFFF76CFF8D
:100D2000FFF7CEFE054C4FF47A7500BFFFF7F8FED3
:100D300020602846FFF79EFAF8E700000000002038
:100D4000000000000000000001020304060708097B
:100D5000700D00080000002014000000F60C0008D0
:100D6000840D00081400002004040000060D000893
:100D70000000000001000000100000000000000062
:040D80000024F40057
:04000005080000ED02
:00000001FF
