S00C00004C4D37352E7372656313
S11300000C942A000C9447000C9447000C9447006D
S11300100C9447000C9447000C9447000C94470040
S11300200C9447000C9447000C9447000C94470030
S11300300C9447000C9447000C9447000C94470020
S11300400C9447000C9447000C9447000C94470010
S11300500C94470011241FBECFE5D4E0DEBFCDBF12
S113006010E0A0E6B0E0E2E6F6E002C005900D92F2
S1130070A836B107D9F720E0A8E6B0E001C01D9288
S1130080A836B207E1F70E94F2020C942F030C94F5
S1130090000011B888E480B9089594EA96BF06B6C2
S11300A007FEFDCF91B1987F903171F483B984E854
S11300B086BF06B607FEFDCF81B1887F803431F05C
S11300C0803231F083E0089580E0089581E008955E
S11300D082E0089584E986BF06B604FCFDCF089546
S11300E01F93CF93DF93182FC4EAD4E8C6BF06B694
S11300F007FEFDCF81B1887F8830C1F713B9D6BF21
S113010006B607FEFDCF81B1887F883119F00E94C1
S11301106A00ECCFDF91CF911F91089583B984E8F1
S113012086BF06B607FEFDCF81B1887F883221F0F5
S1130130803321F082E0089580E0089581E00895FD
S113014084EC86BF06B607FEFDCF83B10895672B06
S113015009F09FC0009711F4D89808958130910553
S113016011F4D99808958230910511F4DA9808951C
S11301708330910511F4DB9808958430910511F4CE
S1130180DC9808958530910511F4DD980895863042
S1130190910511F4DE9808958730910511F4DF98E4
S11301A008958A30910511F4C09808958B30910513
S11301B011F4C19808958C30910511F4C2980895F2
S11301C08D30910511F4C39808958E30910511F482
S11301D0C49808958F30910511F4C598089580311D
S11301E0910511F4C69808958131910511F4C798C9
S11301F008958431910511F4A898089585319105E5
S113020011F4A99808958631910511F4AA980895D6
S11302108731910511F4AB9808958831910511F453
S1130220AC9808958931910511F4AD9808958A31F7
S1130230910511F4AE9808958B31910511F4AF989E
S113024008958E31910511F4909808958F31910598
S113025011F4919808958032910511F492980895BB
S11302608132910511F4939808958232910511F425
S1130270949808958332910511F4959808958432E1
S1130280910511F496980895859709F09FC0979861
S11302900895009711F4D89A08958130910511F4C6
S11302A0D99A08958230910511F4DA9A0895833029
S11302B0910511F4DB9A08958430910511F4DC9AC8
S11302C008958530910511F4DD9A089586309105DD
S11302D011F4DE9A08958730910511F4DF9A089598
S11302E08A30910511F4C09A08958B30910511F468
S11302F0C19A08958C30910511F4C29A08958D30F5
S1130300910511F4C39A08958E30910511F4C49A9D
S113031008958F30910511F4C59A0895803191059F
S113032011F4C69A08958131910511F4C79A08957C
S11303308431910511F4A89A08958531910511F439
S1130340A99A08958631910511F4AA9A08958731DE
S1130350910511F4AB9A08958831910511F4AC9A82
S113036008958931910511F4AD9A08958A31910562
S113037011F4AE9A08958B31910511F4AF9A089552
S11303808E31910511F4909A08958F31910511F4ED
S1130390919A08958032910511F4929A08958132C8
S11303A0910511F4939A08958232910511F4949A67
S11303B008958332910511F4959A08958432910534
S11303C011F4969A0895859709F4979A0895CF930E
S11303D0C82F80FF07C061E070E080E290E00E94D7
S11303E0A70006C060E070E080E290E00E94A700F1
S11303F0C1FF07C061E070E081E290E00E94A700C5
S113040006C060E070E081E290E00E94A700C2FFB5
S113041007C061E070E082E290E00E94A70006C09D
S113042060E070E082E290E00E94A700C3FF07C092
S113043061E070E083E290E00E94A70006C060E003
S113044070E083E290E00E94A700CF910895CF93DB
S1130450C82F60E070E08EE190E00E94A7008C2F2E
S11304600E94E70161E070E08FE190E00E94A70044
S11304708FE99FE00197F1F700C0000060E070E0B1
S11304808FE190E00E94A7008FE99FE00197F1F7C8
S113049000C00000CF910895CF93C62F813059F446
S11304A080E8860F82958F700E9427028C2F8F70B0
S11304B00E9427020CC0823051F480EC860F829592
S11304C08F700E9427028C2F8F700E942702CF9179
S11304D0089580E00E94E7012FEF89EF90E021501A
S11304E080409040E1F700C0000083E00E942702B2
S11304F08FE19EE40197F1F700C0000083E00E94C1
S113050027028FED9BEA0197F1F700C0000083E01A
S11305100E94270282E00E94270282E00E942702B2
S113052088E00E94270280E00E9427028CE00E945B
S1130530270280E00E94270286E00E942702089595
S1130540CF93C82F61E070E08EE190E00E94A70095
S11305508C2F82958F700E94E70161E070E08FE13B
S113056090E00E94A7008FE99FE00197F1F700C097
S1130570000060E070E08FE190E00E94A7008FE946
S11305809FE00197F1F700C000008C2F8F700E944C
S1130590E70161E070E08FE190E00E94A7008FE93D
S11305A09FE00197F1F700C0000060E070E08FE188
S11305B090E00E94A7008FE99FE00197F1F700C047
S11305C00000CF910895CF93DF93EC0188818823B5
S11305D031F021960E94A00289918111FBCFDF9115
S11305E0CF9108958FEF81BB1ABA0E9469020E94CD
S11305F0490080E690E00E94E30280E90E947000D6
S11306000E946A0080E90E94700080E00E948E00CF
S113061081E90E944D000E94A000C82F0E946A0038
S11306208DECC89F812D1124869586958695880F1B
S1130630982F990F990F890FC81BC05D66E081E060
S11306400E944C028C2F0E94A0022FEF83ED90E3B6
S1130650215080409040E1F700C00000EFCFF894B3
S1050660FFCFC6
S10B066254656D703A2000009C
S9030000FC
