:020000040800F2
:10000000D004002001010008BB2500085D1700088E
:10001000B925000827040008152600080000000084
:10002000000000000000000000000000BF250008E4
:100030002904000800000000BD250008C1250008B3
:100040001B0100081B0100081B0100081B01000820
:100050001B0100081B0100081B0100081B01000810
:100060001B0100081B0100081B0100081B01000800
:100070001B0100081B0100081B0100081B010008F0
:100080001B0100081B0100081B0100081B010008E0
:100090001B0100081B0100081B0100081B010008D0
:1000A0001B0100081B0100081B0100081B010008C0
:1000B0001B0100081B0100081B0100086D17000848
:1000C0006117000885170008791700081B01000850
:1000D0001B0100081B0100081B0100081B01000890
:1000E0001B0100081B0100081B010008DFF80CD0F1
:1000F00000F078F90048004755260008D004002099
:100100000648804706480047FEE7FEE7FEE7FEE7B1
:10011000FEE7FEE7FEE7FEE7FEE7FEE71326000840
:10012000ED000008202A04DB203A21FA02F0002129
:10013000704721FA02F3D040C2F1200291400843F7
:100140001946704740EA01039B0703D009E008C93C
:10015000121F08C0042AFAD203E011F8013B00F88C
:10016000013B521EF9D27047D2B201E000F8012BD8
:10017000491EFBD270470022F6E710B513460A4627
:1001800004461946FFF7F0FF204610BD2DE9F04D5B
:1001900081EA030404F0004B21F0004514464FF0BF
:1001A000000A23F0004150EA050220D054EA01027F
:1001B0001DD0C5F30A570246C5F31303C1F313005C
:1001C000C1F30A5640F4801543F48013A7EB0608E8
:1001D000101BD64608F2FD3873EB050002D308F178
:1001E000010801E092185B41B8F1000F03DA00202A
:1001F0000146BDE8F08D00204FF48011064684468C
:100200000EE0171B73EB050705D3121B63EB050309
:1002100006434CEA010C49084FEA300092185B4152
:1002200050EA0107EDD152EA030012D082EA04003D
:1002300083EA0501084305D0101BAB4106D2012219
:10024000002306E000224FF0004302E06FF00102BD
:1002500053101AEB06004CEB085110EB0A0041EB6F
:100260000B01BDE8F04D00F060B80EB540F233412F
:1002700002910021CDE900110A460B4600F064F816
:1002800003B000BD01F0004330B421F0004150EA5A
:10029000010206D00A0DA2F56072C1F31301002A13
:1002A00002DC30BC00207047440F44EAC104C100A6
:1002B000E01830BC00EBC250AFF300800029A8BFAB
:1002C0007047401C490008BF20F00100704710B47F
:1002D000B0FA80FC00FA0CF050EA010404BF10BC34
:1002E000704749B1CCF1200421FA04F411FA0CF161
:1002F00018BF012121430843A3EB0C01CB1D4FEA9A
:1003000000614FEA102042BF002010BC704700EB94
:10031000C35010440029A4BF10BC7047401C4900C2
:1003200008BF20F0010010BC704710B5141E73F117
:10033000000408DA401C41F1000192185B411A43A5
:1003400001D120F0010010BD2DE9F04D92469B46F1
:1003500011B1B1FA81F202E0B0FA80F22032904697
:1003600000F052F804460F4640EA0A0041EA0B0149
:1003700053465A46084313D0114653EA010019D098
:10038000C8F140025046FFF7CDFE05460E465046E6
:100390005946424600F038F8084305D0012004E0F1
:1003A00020463946BDE8F08D0020054346EAE07658
:1003B0002C4337430A986305E40AA0EB08000022A7
:1003C000FD0A44EA47540A3002D500200146E9E715
:1003D000010510196941DDE9084500196941BDE8C9
:1003E000F04DA2E7064C074D06E0E06840F001033F
:1003F00094E8070098471034AC42F6D3FFF77AFE32
:10040000E426000804270008202A04DB203A00FA2A
:1004100002F1002070479140C2F1200320FA03F35B
:10042000194390407047FEE770470000F0B5434D18
:10043000A9B0102068722A22A5F1A80113A8FFF71D
:1004400081FEA5F1A804608DADF87600E06A1E90EB
:10045000206B1F9004F1340109220F4620A8FFF7FA
:1004600071FE94F83D008DF8890094F83E008DF8F7
:100470008A00206C2390606C2490A06C2590E06C26
:100480002690206D279001204626CDE91160442258
:1004900017A96846FFF756FE0DF14C0C9CE80F00BB
:1004A00002F024F82548A83800F04EFB2028F9D1A6
:1004B00022492A22A83913A8FFF744FE608DADF81F
:1004C0007600E06A1E90206B1F900922394620A812
:1004D000FFF738FE94F83D008DF8890094F83E004F
:1004E0008DF88A00206C2390606C2490A06C25907D
:1004F000E06C2690206D27900220CDE91160442207
:1005000017A96846FFF71EFE0DF14C0C9CE80F0082
:1005100001F0D8FD697AE970A87A287100EB012012
:10052000FFF7A3FE4FF03332054BFFF72FFEFFF727
:10053000A9FE0449086029B0F0BD0000BC000020FD
:100540003333F33F0000002010B590F82110002451
:10055000022903D00421816301243DE001680A6877
:1005600022F00E020A6001680A6822F001020A60A5
:100570001A4A0168914201D1012121E0174A14323F
:10058000914201D110211BE0144A2832914201D13D
:10059000891515E0114A3C32914201D189140FE0CE
:1005A0000E4A5032914202D14FF4803108E00B4A9A
:1005B0006432914202D14FF4801101E04FF080711A
:1005C000064A083A5160012180F82110002180F884
:1005D0002010416B01B18847204610BD0800024041
:1005E00090F821007047000070B5044600F00CF947
:1005F0000546601C02D004480078044400F004F969
:10060000401BA042FAD370BD040000202DE9F84F32
:10061000DFF8B891002409F1040A0AF1040B23461B
:100620000F270BF1040EC9E00125A5402A40AA427C
:100630007DD1674ED1F804C0ACEB0608B44532D08A
:1006400014DCBCF1030F3AD009DCBCF1000F2AD056
:10065000BCF1010F1CD0BCF1020F31D11DE0BCF187
:10066000110F17D0BCF1120F2AD119E0B8F5881F6D
:1006700019D006DCB8F5803F15D0B8F5801F1FD122
:1006800011E0B8F5001F0ED0B8F5041F18D10AE02C
:10069000CB6815E0CB681B1D12E0CB6808330FE078
:1006A000CB680C330CE08B682BB1012B4FF00803A7
:1006B00003D0456104E0042302E0056100E000236B
:1006C000FF2A01D8064601E000F104064FEA84053E
:1006D00001D9A5F12005D6F8008007FA05FC28EA23
:1006E0000C0803FA05F548EA0508C6F800804D68CD
:1006F000ED0062D5374DAE6946F00106AE61AD69D9
:1007000024F0030605F001050095334D06EB050CBA
:10071000DCF80850A607360F07FA06F825EA0805A0
:10072000DFF8B880404503D14FF0000817E044E0FF
:10073000DFF8AC80404502D14FF001080FE0DFF850
:10074000A480404502D14FF0020808E0DFF898800D
:10075000404502D14FF0030801E04FF0040808FAC9
:1007600006F848EA0508CCF808804D68D9F800601A
:10077000ED034D4601D5164300E096432E604D68CB
:10078000DAF80060AD03554601D5164300E0964304
:100790002E604D68DBF80060ED025D4601D5164322
:1007A00000E096432E604D68DEF80060AD027546AD
:1007B00001D5164300E096432E60641C0D682A465E
:1007C000E5407FF431AFBDE8F88F00000004014040
:1007D000000011100010024000000140000801401C
:1007E000000C01400010014000140140C26821EAE1
:1007F00002030A4043EA0241016170470AB1016104
:1008000070470904FBE7000001488068704700005A
:1008100004000020704770472DE9F041016804464C
:100820004A694E6890F83E000025D743FA050BD47C
:10083000F243D20508D46FF4807201254A61216821
:100840000A6842F400420A60B90508D4F143C905B8
:1008500005D422686FF4007145F0020551617905F5
:1008600025D4F143C90522D4638D94F83D10226B41
:10087000202808D13BB9212910D029290ED02829B8
:1008800001D1212A0AD022686FF48061516145F0BC
:100890000405102806D0402804D008E0204601F0C6
:1008A00037FC04E02068016841F4007101603805FC
:1008B00008D4F043C00505D421686FF4006045F00A
:1008C00008054861002D07D0206C2843206420468D
:1008D000BDE8F04100F0BABFBDE8F0812DE9F0417C
:1008E000026800245168C76A90F83E5090F83D6055
:1008F000102D1CD0402D1AD0036C002B7ED05369D4
:100900004FF02805DB439F0779D4CF43BF0576D44A
:10091000016C01B1946990F83D3000219D430B4674
:100920006ED0C91E516180F83C30BDE8F0819469F9
:1009300053694FF42A0CDB435FEAC37E4FF02A462B
:1009400004D06745F1D0B742EFD010E0CF43BF05E8
:100950000DD4C16A614501D1012103E0C16AB142F0
:1009600001D10821C162BDE8F04101F015BB1E07AD
:1009700016D4CE43B60513D4416CC9B21161416B94
:1009800011B9826B002AD0D0896A19B9816B896A42
:100990000029CAD00068416841F400614160C4E7A1
:1009A0009E0706D4CE43B60503D4BDE8F04101F05E
:1009B00047BAE443526864074FEA02521BD4002A44
:1009C000B3DB1A0608D4CA43520505D45A0705D525
:1009D000BDE8F04101F0D8B95A07A6D4C94389054A
:1009E000A3D4102D03D0BDE8F04101F01BBBBDE83E
:1009F000F04101F08FB9002A97DB02E015E029E011
:100A000015E05A0608D4CA43520505D45A0705D53D
:100A1000BDE8F04101F046B85A0786D4C9438905BC
:100A200083D4BDE8F04100F0D4BF946967E755680E
:100A300025F480655560E243540700D50121120674
:100A400001D5828900E0028B80F83C3092B2FFF73A
:100A5000E2FE6AE7DC0606D4CC43A40503D4BDE875
:100A6000F04101F097BB212E27D0292E25D05C061E
:100A700055D4CC43640552D45B0752D590F83D1051
:100A8000438D002B8BD01269436A1A70426A521C44
:100A90004262428D521E4285428D002AD9D12A29B6
:100AA000D7D101684A6822F480624A60222101633A
:100AB00080F83D5000F038FB37E71C0623D4CC43C8
:100AC000640520D45B0720D590F83D10438D002BA2
:100AD000BFD0436A1B781361426A521C4262428D46
:100AE000521E4285428D002AB3D12929B1D1016815
:100AF0004A6822F480624A602121016380F83D50F7
:100B000000F013FB11E75B07A3D4C9438905A0D408
:100B1000418D00299DD0416A097811610AE05B0787
:100B200097D4C943890594D4418D002991D0116986
:100B3000426A1170416A491C4162418D491E4185DA
:100B4000F3E67047006C704790F83D007047000076
:100B500070B5040025D094F83D00002520B984F834
:100B60003C50204600F076FA242084F83D002068AE
:100B7000016821F0010101602068016841F4004131
:100B800001602068016821F40041016000F0FCFB75
:100B90004D4A6168914201D84C4900E04C49884275
:100BA00001D2012070BD4B492368B0FBF1F15E68B2
:100BB00026F03F060E435E606368934206D94FF409
:100BC000967359434FF47A73B1FBF3F12368491CD0
:100BD0001E6A26F03F06314319626168914210D8BF
:100BE0004900401EB0FBF1F2521CC2F30B02042A72
:100BF00001D2042022E0B0FBF1F0401CC0F30B0056
:100C00001CE0A268F2B301EBC10303EB0116431E23
:100C1000B3FBF6F35B1C43F480431B0549D092B34E
:100C200001EBC10202EB0111401EB0FBF1F0401CD0
:100C3000C0F30B0040F4804040F400402168CA69D2
:100C40004CF6FF739A431043C861D4E9071001437F
:100C50002068026822F0C00211430160D4E9030158
:100C600001432068826848F2FF339A431143816050
:100C7000D4E9050108432168CA6822F0FF02104345
:100C8000C86001E00EE016E02068016841F0010153
:100C900001602564202084F83D00256384F83E50DF
:100CA000002070BD01EB4106431EB3FBF6F35B1C55
:100CB000B3E70120C2E701EB4101401EB0FBF1F0B8
:100CC000401CC0F30B00B7E7A086010080841E0023
:100CD00000093D0040420F00704770477047000018
:100CE0002DE9F84F0025DDF82890984617468A46EA
:100CF00004460095FFF788FD064694F83D0020283D
:100D00007AD11923012283492046009601F016FB6F
:100D10000028F5D194F83C0001286DD0012084F81A
:100D20003C0020680168C90703D1016841F0010156
:100D300001602068016821F400610160222084F8CC
:100D40003D00102084F83E0025646762A4F82A80E4
:100D5000608D20857048E06233464A465146204601
:100D600000F014FF00287DD1208DDFF8B08120270E
:100D700068B1012814D00228206801681ED041F40F
:100D8000806101602068416980690090B5E0206859
:100D9000416981690091016841F400710160ACE032
:100DA0002068016821F48061016072B620684169A1
:100DB00081690091016841F400710AE041F4006129
:100DC000016072B62068416981690091016821F46F
:100DD0008061016062B690E0032868D801280CD0D9
:100DE00002284B464FF000024146204600960FD0A5
:100DF00001F0A4FAB0BB10E08AE032464946204632
:100E000001F01BFB70BB20680069616A08706BE031
:100E100001F094FA30BB72B634E02068016821F426
:100E20008061016072B620680069616A0870606A5A
:100E3000401C6062208D401E2085608D401E6085B4
:100E4000374846F2A8110068B0FBF1F0C0EBC000D3
:100E500000EB80000090401E009008D020684069A0
:100E6000C04300E029E040070CD50098F3E744F8C0
:100E7000305F6773A573206940F02000206162B67F
:100E800025731AE02068016841F400710160206850
:100E90000069616A0870606A401C6062218D491EA9
:100EA0002185618D491E618562B621681AE032464E
:100EB0004946204601F0C1FA10B10120BDE8F88F83
:100EC00020680069616A0870606A401C6062218D58
:100ED000491E2185618D491E618521684A69D24379
:100EE00052070AD409690170606A401C6062208D53
:100EF000401E2085608D401E6085208D00287FF477
:100F00006BAF84F83D7084F83E5084F83C50D5E7D0
:100F10000220D3E7020010000000FFFF04000100E0
:100F2000100000202DE9F84F1F4690468A460446DF
:100F3000DDF82890FFF768FC054694F83D0020286E
:100F40007FD11923012240492046009501F0F6F98E
:100F5000002876D194F83C00012872D0012084F852
:100F60003C0020680168C90703D1016841F0010114
:100F700001602068016821F400610160212084F88B
:100F80003D00102084F83E0000262664C4F824802A
:100F90006785608D20852D48E0622B464A46514684
:100FA000204600F069FE90B9206841698069009090
:100FB00036E02A464946204601F072FA50B1206CCC
:100FC000042804D12068016841F400710160012007
:100FD000BDE8F88F606A216800780861606A401C8B
:100FE0006062618D491E6185218D491E89B221850E
:100FF00022685369DB435B070BD451B10078106161
:10100000606A401C6062608D401E6085208D401EBD
:1010100020852A464946204601F06AF90028CED1AB
:10102000208D0028C5D154F83D0B016841F40071B2
:101030000160202004F81E09E67766770020C7E7E4
:10104000FFE70220C4E70000020010000000FFFFDD
:101050007047704730B585B0002100910191029131
:1010600003912D4D03682D4C122103222C48AB42D5
:1010700025D1A36943F00803A361A369039203F098
:1010800008030493C023CDE900316946FFF7BEFA97
:10109000E06940F40010E061E069002200F4001013
:1010A000049011461F2000F0A7F81F2000F096F8CA
:1010B00000221146202000F09FF8202028E0194D42
:1010C000AB4227D1A36943F00803A361A36903924C
:1010D00003F0080304934FF44063CDE900316946FF
:1010E000FFF794FAE06940F48000E061E0690022D3
:1010F00000F4800004901146212000F07DF82120AA
:1011000000F06CF800221146222000F075F8222031
:1011100000F064F805B030BD0054004000100240FB
:10112000000C014000580040704770470248816839
:10113000027811448160704704000020074810B510
:10114000016841F010010160032000F075F80020F3
:1011500000F006F800F024F8002010BD0020024046
:1011600070B50D4D04464FF47A712878B1FBF0F05C
:101170000A490968B1FBF0F000F0DCFA48B9102C1C
:1011800007D200222146501E00F036F800206C6085
:1011900070BD012070BD0000040000201000002080
:1011A0000C4808B5816941F001018161816901F054
:1011B00001010091C16941F08051C161C06900F035
:1011C000805000900448416821F0E06141F00071D6
:1011D000416008BD0010024000000140002809DB0A
:1011E00000F01F02012191404009800000F1E02041
:1011F000C0F8001170470000F0B40E4B1B680C469D
:10120000C3F30223C3F10705042D00D90425191DDA
:10121000072901D2002300E0DB1E012606FA05F1B2
:10122000491E214099409E40761E16403143F0BC35
:1012300001F0F1B90CED00E0064900F00702086882
:101240004FF6FF03184040EA0220034A10430860AB
:10125000704700000CED00E00000FA052DE9F047B2
:101260000F46050061D0434E306800F00700B842D9
:1012700009D2306820F0070038433060306800F051
:101280000700B84251D128683B4C810712D540076E
:1012900003D5606840F4E06060602878000703D5FB
:1012A000606840F4605060606068A96820F0F000F9
:1012B000084360602878C00728D06868012810D0EB
:1012C0002168022810D0890700292EDA616821F0F0
:1012D000030101436160FFF797FA804641F28839C4
:1012E0000DE021688903EFE78901EDE7FFF78CFA4C
:1012F000A0EB0801494502D90320BDE8F0876068EA
:10130000696800F00C00B0EB810FEFD1306800F09D
:101310000700B8420BD9306820F00700384330602E
:10132000306800F00700B84201D00120E5E72878D6
:10133000400705D56068E96820F4E0600843606014
:101340002878000706D56068296920F4605040EAD3
:10135000C100606000F028F86168084AC1F3031119
:10136000515CC8400649086006480068FFF7F8FE6F
:101370000020C2E70020024000100240CC260008F6
:101380001000002008000020044805490068496852
:10139000044AC1F30221515CC8407047100000208C
:1013A00000100240DC26000812A185B00FC98DE8AC
:1013B0000F0014A0144A006804905168134801F00B
:1013C0000C03042B10D0082B0ED1C1F38343C903A7
:1013D0001DF803000AD5516804AAC1F34041515CCD
:1013E0000A4A5043B0FBF1F005B070470849484342
:1013F000FAE7000002030405060708090A0B0C0DB2
:101400000E0F1010010200000010024000127A00BE
:1014100000093D002DE9F84F040070D02078C04D40
:10142000C00749D06868C0F38100012807D0686808
:10143000C0F38100022809D16868C00306D5286876
:10144000800339D560680028E7D035E06068B0F5E2
:10145000803F0BD010B1B0F5A02F11D0286820F438
:1014600080302860286820F4802002E0286840F45A
:1014700080302860606890B1FFF7C6F906460AE040
:10148000286840F480202860F0E700BFFFF7BCF92F
:10149000801B642873D828688003F7D50CE0FFF719
:1014A000B3F9064605E000BFFFF7AEF9801B6428DC
:1014B000F0D828688003F7D420789A4E80074FF040
:1014C00001094FF0000839D5686810F00C0F07D0FB
:1014D0006868C0F38100022809D16868C00306D497
:1014E0002868800714D52069012808D110E02069F8
:1014F000B0B1C6F80090FFF787F9074605E00AE1AA
:10150000FFF782F9C01B0228C4D828688007F7D5E6
:101510002868616920F0F80040EAC10028600DE009
:10152000C6F80080FFF770F9074604E0FFF76CF992
:10153000C01B022823D828688007F7D4207800072A
:101540002CD57948A169D9B1C0F80090FFF75CF9B2
:10155000074604E0FFF758F9C01B02280FD8686A55
:101560008007F7D571484FF4FA510068B0FBF1F0ED
:10157000009000BF0098411E0091FAD20EE080E07A
:10158000C0F80080FFF740F9074604E0FFF73CF998
:10159000C01B022875D8686A8007F7D420784007F6
:1015A00060D5E8690027C00008D4E86940F08050A1
:1015B000E861E869012700F0805000905C4801680C
:1015C000C90513D40168834641F480710160FFF7B7
:1015D0001BF9824606E000BFFFF716F9A0EB0A00F0
:1015E00064284ED8DBF80000C005F5D5E068012876
:1015F0000AD008B1052813D0286A20F0010028621B
:10160000286A20F0040002E0286A40F00100286205
:10161000E06841F2883B98B1FFF7F6F882460BE0AC
:10162000286A40F004002862EEE700BFFFF7ECF8FC
:10163000A0EB0A0159455AD8286A8007F6D50CE074
:10164000FFF7E2F8824605E0FFF7DEF8A0EB0A01BB
:1016500059454CD8286A8007F6D41FB1E86920F0B4
:101660008050E861E06988B36968C1F381010229AB
:1016700044D00228C6F8608004D0FFF7C5F80446BD
:1016800038E034E0FFF7C0F8074604E0FFF7BCF8A5
:10169000C01B02282BD828688001F7D4206AB0F537
:1016A000803F05D16868A16820F400300843686075
:1016B000D4E908010843696821F47411084368609B
:1016C000C6F86090FFF7A0F8044606E025E000BFEA
:1016D000FFF79AF8001B022809D828688001F7D57F
:1016E0001BE000BFFFF790F8001B022802D903207F
:1016F000BDE8F88F28688001F4D40EE00128F7D007
:101700006868226A00F48031914204D1616A00F471
:101710007010884201D00120EAE70020E8E70000CD
:1017200000100240000042428004424210000020AB
:101730000070004010B5401EB0F1807F01D3012041
:1017400010BD4FF0E02460610F21601700F063FFCF
:101750000020A06107202061002010BDFEE70000EE
:101760000148FFF759B80000140000200148FFF7B6
:10177000B5B80000140000200148FFF74DB8000084
:10178000680000200148FFF7A9B8000068000020A9
:1017900038B5406A002190F83D202B4B46F2A81442
:1017A0001B68B3FBF4F3C3EBC30303EB83030093A6
:1017B0003BB15B1E009303681B689B0505D5009B2E
:1017C000F6E7036C43F020030364436B03B19962B3
:1017D000836B03B1996203681C6824F480641C6005
:1017E0004185436B03B15963836B03B1596303684C
:1017F0001C6824F001041C6090F83D402023602CFC
:101800000BD0282434EA02020FD080F83D3080F853
:101810003E1000BFFFF795F938BD80F83D3080F8E5
:101820003E100164FEF7F6FF38BD0268136843F00E
:10183000010313600268136843F48063136001635B
:1018400080F83D40E6E700001000002070B5044637
:1018500090F83D0094F83E10102901D0402906D19F
:10186000222804D121680A6822F400620A60282133
:1018700031EA00024FF000054FF0200626D0216823
:101880004968090505D4602803D084F83D6084F8D0
:101890003E50256320684168090537D5416821F429
:1018A00000614160606B3D4990F82120012A11D010
:1018B0004163606BFEF748FE38B32068016821F091
:1018C0000101016084F83D60606B1CE0256384F8D1
:1018D0003D10DFE7A06B4163A06BFEF735FEA0B1C2
:1018E00020684169C943490605D40069616A0870E6
:1018F000606A401C60622068016821F0010101609B
:1019000084F83D60A06B416B884710E094F83D106F
:10191000602910D04169C943490605D40069616A4C
:101920000870606A401C60622046FFF70AF9206C6C
:10193000C1071CD115E084F83D6025644169C943A5
:10194000490605D40069616A0870606A401C6062DB
:101950002068016821F0010101602046FEF75AFF6E
:10196000E5E7810703D4410701D4000704D52068C7
:10197000416821F4E061416094F83D00216C490721
:101980000BD5282809D10648E062256384F83D601C
:1019900084F83E502046FFF79FF970BD911700086C
:1019A0000000FFFF01684A69D24352050FD46FF46B
:1019B00080624A61002140F8301F20224273817307
:1019C000026942F0040202610173012070470020A5
:1019D000704710B5C26A438D0168042B06D0438D51
:1019E000032B08D0438D022B1DD012E04A6822F44D
:1019F00080624A600CE04B6823F480634B60042AE9
:101A000006D0022A04D001680A6822F480620A60C3
:101A100001680969426A1170416A491C4162418D3D
:101A2000491E418510BD012A30D0102A2ED0042A2B
:101A300030D0022A2ED00A6842F400720A6001688F
:101A40000969426A1170416A491C4162428D521E05
:101A50004285026812690A70416A491C4162418DDF
:101A6000491E418501684A6822F440724A6020217B
:101A700080F83D1090F83E200021402A80F83E106A
:101A80000CD012210163FFF728F910BD0A6822F477
:101A90008062D3E70A6842F48062CFE70163FFF710
:101AA000D7FA10BD38B590F83D10222914D1418DD8
:101AB000032912D901680969426A1170416A491CF7
:101AC0004162418D491E4185418D032904D1006841
:101AD000416821F48061416038BDC26A022AFBD0AE
:101AE000012901D00029F7D1274946F2A813002285
:101AF0000968B1FBF3F101EB81010091016820233A
:101B0000009C641E009422D00C68A405F8D40C68D4
:101B100024F480640C6001684C6824F4E0644C6038
:101B200001680969446A2170416A491C4162418D1A
:101B3000491E418580F83D3090F83E1080F83E20E7
:101B400040291DD012210163FFF7C7F838BD046C8E
:101B500044F0200404644C6824F4E0644C600168A0
:101B60000969446A2170416A491C4162418D491EDC
:101B7000418580F83D3080F83E20FEF7E2FF38BD19
:101B80000263FFF765FA38BD100000202DE9F84F19
:101B90000446C06A1E4693460D4621680A6842F410
:101BA00080620A60082807D0012805D010F5803F20
:101BB00002D0206B112804D12068016841F48071A3
:101BC00001604FF001195B4600224946204600960D
:101BD00000F0B4FB4FF4007840B120680068C00505
:101BE00001D5C4F840800320BDE8F88F2069DFF8F4
:101BF00084A0B0F5804F0FD00620216800EAD517E9
:101C000047F0F000086133465A460AF106012046C3
:101C100000F0C8FB58BB03E0E8B240F001001CE054
:101C20002168E8B2086133465A465146204600F022
:101C3000B9FBE0B92068416981690091016841F40C
:101C4000807101605B46002249462046009600F004
:101C500075FB0028C1D147F0F100216808613346C7
:101C60005A465146204600F09DFB0028BCD001207A
:101C7000BAE7000002000100F8B50446C06A1E463B
:101C80000D461746082807D0012805D010F5803FDB
:101C900002D0206B122804D12068016841F48071C1
:101CA0000160134600224FF001112046009600F01B
:101CB00045FB40B120680068C00502D54FF40070B4
:101CC00020640320F8BD2069B0F5804F0ED00620B7
:101CD000216800EAD51040F0F000086133463A462A
:101CE0000B49204600F05EFB78B902E005F0FE00EB
:101CF00000E0E8B221680861054933463A46891F89
:101D0000204600F04FFB0028DCD00120F8BD000089
:101D10000800010010B5C16A90F83D20212A0BD1BE
:101D2000428D52B1416A026809781161416A491CC9
:101D30004162418D491E418510BD002220230829A2
:101D400010D020290ED011F5803F0BD001684C68CF
:101D500024F4E0644C601121016380F83E2080F897
:101D60003D300EE001684C6824F4E0644C6001688A
:101D70000C6844F400740C60026380F83D3080F815
:101D80003E20FEF7ABFF10BD10B590F83D1090F867
:101D90003E30C26A048DB4B1212903D0402B11D149
:101DA00022290FD1418DE1B390F83E10402942D055
:101DB000416A026809781161416A491C4162418D9A
:101DC000491E418510BD2129E8D120230021082A80
:101DD00013D0202A11D012F5803F0ED0026854682B
:101DE00024F4E06454601122026380F83E1080F80D
:101DF0003D3000BFFEF772FF10BD0268546824F446
:101E0000E06454600268146844F400741460016370
:101E100080F83D3090F83E2080F83E10402AE9D10D
:101E200000E002E0FFF715F910BD0068416821F4F9
:101E30008061416010BDBDE8104000F0F3B80000C3
:101E400078B590F83E50C26A046B90F83D6000236C
:101E50000168222E73D1066D0EB9402D6FD0056D2D
:101E60001DB90569B5F5404F1BD0458D95B3468D1D
:101E7000484D012E20D0448D022C4DD00C6844F4E6
:101E800080640C6001684C68240579D5AA4273D03F
:101E9000012A71D0082A6FD0102A6DD0202A6BD069
:101EA0006EE04A698A6900920A6842F480720A60A8
:101EB000016D491C016578BDAA4214D10A6822F45B
:101EC00080620A6001684A68120504D50A6822F433
:101ED000806217E0FFE74A698A6900920A6842F463
:101EE00000720A6050E0082A10D0202A0ED0122C6E
:101EF0000AD0042A03D0022A01D0102AE6D10A68A7
:101F000042F480620A603BE0012ADFD00A6822F4D2
:101F100080620A600168DEE7042A11D0022A0FD02D
:101F2000102A0DD00C6844F400640C6001684C6900
:101F30008C6900940C6824F480640C6008E025E04F
:101F40000C6844F480640C6001684C6989690091F4
:101F500001684C68240517D5AA4207D0012A05D08C
:101F6000082A03D0102A01D0202A0DD14A6842F451
:101F700080524A6008E0FFE74A6842F480524A60B3
:101F800001684A6989690091036578BD4869886973
:101F9000009078BD0000FFFF90F83E10402910D05F
:101FA0000169B1F5804F19D0016DA9B3016D012907
:101FB00010D1416C5FF0F10201F4407142EAD1119D
:101FC00006E0016D0029416C05D0C9B241F0010164
:101FD00000680161704701F0FE01F9E790F83D10DB
:101FE0002129416C09D0C9B241F001010268116197
:101FF000416B29B1896A49B902E001F0FE01F5E7B8
:10200000816B0029E6D0896A0029E3D00068416825
:1020100041F4006141607047FFE7416CF02201F438
:102020004071CBE710B590F83D10026D22B3026D00
:10203000012A2FD0026D022A1DD1222931D0428DD2
:102040000AB1212933D0428D002A14D1212912D17D
:1020500001684A6822F4E0624A6001680A6842F452
:1020600000720A6000210163202280F83D2080F880
:102070003E10FEF7EEFF10BDC16C0129816C02D04D
:10208000C1F3072108E00268C9B21161016D891C22
:10209000016510BD816CC9B202681161016D491CF6
:1020A000F6E70068016841F48071016010BD416A83
:1020B000026809781161416A491C4162418D491EDB
:1020C000418510BD0FB42DE9F8434FF40056DDE90A
:1020D0001D980D4F4FF47A750C4C08E008A8FEF7D8
:1020E00031FD042803D031463846FEF77FFB4346D6
:1020F0002246494608A80095FEF7F2FD0028EDD1DA
:10210000BDE8F8035DF814FB00100140C500002095
:102110002DE9F04190F83D40C26A002320261C4F73
:1021200001686FF48065082A01D0202A01D1282C8B
:1021300004D0212C16D04D61BDE8F081C7624A68F9
:1021400022F4E0624A6001684D6101680A6822F485
:1021500080620A60036380F83D6080F83E30FEF7DD
:10216000BBFDE9E7C7622122026380F83D6080F889
:102170003E304A6822F4E0624A6001684D610168BD
:102180000A6822F480620A60FEF7CFFFD4E70000FD
:102190000000FFFFF8B590F83D6004460068416814
:1021A00021F4E061416020680025416900910168E7
:1021B00041F0010101602068016821F48061016043
:1021C00020684168090520D5474F222E48D02A2E85
:1021D00046D0616B096849686185618D19B1216CD0
:1021E00041F004012164416821F400614160606BA9
:1021F000FEF7F6F9012808D0606B4763606BFEF7C5
:10220000A3F910B1606B416B8847608D08B32068FB
:102210004169C943490708D40069616A0870606A66
:10222000401C6062608D401E608520684169C94322
:10223000490608D40069616A0870606A401C6062DF
:10224000608D401E6085608D18B1206C40F00400E8
:102250002064206C00B32046BDE8F840FFF7F6BAD2
:10226000A16B096849686185618D19B1216C41F0E4
:1022700004012164416821F400614160A06BFEF714
:10228000AFF90128C1D0A06B4763A06BFEF75CF9E2
:102290000028BAD0A06BB6E72A2E06D125632820E5
:1022A00084F83D002046FEF73FFF94F83D102020C3
:1022B00028290DD0216B222901D0222E07D1256398
:1022C00084F83D0084F83E502046FEF72DFFF8BD0F
:1022D0000649E162256384F83D0084F83E502046BB
:1022E000FEF7FAFCF8BD0000911700080000FFFFA0
:1022F00070B516460D4604460DE02046FFF752FB2A
:1023000008B1012070BD681C05D0FEF77DFA801B66
:10231000A84207D835B120684069C0434007ECD4D3
:10232000002070BD002044F8300F20216173A0739D
:10233000216941F0200121612073E2E72DE9F04796
:102340001E4690460D460446C1F30747DDF820902F
:1023500008E0701C06D0FEF757FAA0EB0900B04267
:102360000FD876B12068012F18D0806925EA0000C7
:102370000004000C14D000214145EAD00020BDE843
:10238000F087002044F8300F20216173A073216989
:1023900041F02001216120730120F0E74069E5E769
:1023A0000121E9E72DE9F0479A4691460E46044699
:1023B00000254FF02008C1F3074725E02068406959
:1023C000C043400514D42068016841F400710160E5
:1023D00021686FF480604861256384F83D8084F84B
:1023E0003E50206C40F00400206484F83C501FE014
:1023F000B9F1FF3F08D0FEF707FAA0EB0A01494503
:102400000CD8B9F1000F09D02068012F13D08069D2
:1024100026EA00000004000C0BD0CFE744F8305F40
:1024200084F80D80A573206940F020002061257399
:102430000120BDE8F0874069EAE72DE9F041002579
:1024400090460E460446202717E04069C043C00668
:102450000CD454F8301B6FF01000486144F8105948
:102460006777A577206A2062257717E0FEF7CCF919
:10247000A0EB0800B04208D83EB120684169C943CA
:102480004906E2D40020BDE8F08144F8305F67736C
:10249000A573206940F02000206125730120F2E738
:1024A00070B516460D4604460DE02046FFF77AFA51
:1024B00008B1012070BD681C05D0FEF7A5F9801B8E
:1024C000A84207D835B120684069C0430006ECD463
:1024D000002070BD002044F8300F20216173A073EC
:1024E000216941F0200121612073E2E70FB42DE959
:1024F000F8434FF40056DDE91D980D4F4FF47A75FF
:102500000C4C08E008A8FEF71DFB042803D0314658
:102510003846FEF76BF943462246494608A800951F
:10252000FEF700FD0028EDD1BDE8F8035DF814FBCF
:1025300000100140C500002070B586B000241C4882
:102540000094019402940394816941F01001816127
:10255000816901F010010491816941F020018161DC
:10256000816901F020010491816941F008018161D4
:10257000816901F008010491816941F004018161E0
:102580008069012200F004000A4E55030490294698
:102590003046FEF733F901200095CDE90104032010
:1025A000039069463046FEF731F806B070BD000072
:1025B0000010024000100140FEE77047704770476E
:1025C000FEF7B4BD30B58FB028216846FDF7D3FDC6
:1025D00014210AA8FDF7CFFD01210804CDE9001060
:1025E0000024029402250491CDE907504FF4E01035
:1025F00009906846FEF70EFF0F20CDE90A05680234
:10260000CDE90C4002210AA80E94FEF727FE0FB078
:1026100030BD7047FEE70907090E002804DB00F112
:10262000E02080F80014704700F00F0000F1E02077
:1026300080F8141D704702E008C8121F08C1002A64
:10264000FAD170477047002001E001C1121F002A33
:10265000FBD17047FEF772FDFFF7B4FFFFF76CFF89
:1026600016481549164D00240160C0E901540E14A6
:10267000C0E9034644618461C4610462FEF768FAFC
:102680000E48104954300160C0E90154C0E90346C6
:1026900044618461C4610462FEF75AFA75100A4EFF
:1026A0004FF47A742046FDF79FFFFDF7BFFE2946E1
:1026B0003046FEF79BF8F5E7005400401400002078
:1026C000A0860100005800400010014000000000FA
:1026D00000000000010203040607080900000000D2
:1026E0000102030404270008000000201400000079
:1026F000362600081827000814000020BC0400003B
:102700004626000800000000010000001000000044
:08271000000000000024F400A9
:04000005080000ED02
:00000001FF
